{
  "_format": "hh-sol-artifact-1",
  "contractName": "SuitsOnSuits",
  "sourceName": "contracts/SuitsOnSuits.sol",
  "abi": [
    {
      "inputs": [
        {
          "internalType": "address",
          "name": "_vault",
          "type": "address"
        },
        {
          "internalType": "string",
          "name": "__baseTokenURI",
          "type": "string"
        },
        {
          "internalType": "string",
          "name": "_hiddenMetadataUri",
          "type": "string"
        }
      ],
      "stateMutability": "nonpayable",
      "type": "constructor"
    },
    {
      "anonymous": false,
      "inputs": [
        {
          "indexed": true,
          "internalType": "address",
          "name": "owner",
          "type": "address"
        },
        {
          "indexed": true,
          "internalType": "address",
          "name": "approved",
          "type": "address"
        },
        {
          "indexed": true,
          "internalType": "uint256",
          "name": "tokenId",
          "type": "uint256"
        }
      ],
      "name": "Approval",
      "type": "event"
    },
    {
      "anonymous": false,
      "inputs": [
        {
          "indexed": true,
          "internalType": "address",
          "name": "owner",
          "type": "address"
        },
        {
          "indexed": true,
          "internalType": "address",
          "name": "operator",
          "type": "address"
        },
        {
          "indexed": false,
          "internalType": "bool",
          "name": "approved",
          "type": "bool"
        }
      ],
      "name": "ApprovalForAll",
      "type": "event"
    },
    {
      "anonymous": false,
      "inputs": [
        {
          "indexed": true,
          "internalType": "address",
          "name": "previousOwner",
          "type": "address"
        },
        {
          "indexed": true,
          "internalType": "address",
          "name": "newOwner",
          "type": "address"
        }
      ],
      "name": "OwnershipTransferred",
      "type": "event"
    },
    {
      "anonymous": false,
      "inputs": [
        {
          "indexed": true,
          "internalType": "address",
          "name": "from",
          "type": "address"
        },
        {
          "indexed": true,
          "internalType": "address",
          "name": "to",
          "type": "address"
        },
        {
          "indexed": true,
          "internalType": "uint256",
          "name": "tokenId",
          "type": "uint256"
        }
      ],
      "name": "Transfer",
      "type": "event"
    },
    {
      "inputs": [],
      "name": "MAX_TOKENS",
      "outputs": [
        {
          "internalType": "uint256",
          "name": "",
          "type": "uint256"
        }
      ],
      "stateMutability": "view",
      "type": "function"
    },
    {
      "inputs": [
        {
          "internalType": "bytes32",
          "name": "mThree",
          "type": "bytes32"
        },
        {
          "internalType": "uint256",
          "name": "amount",
          "type": "uint256"
        }
      ],
      "name": "afterHoursMonsterMint",
      "outputs": [],
      "stateMutability": "payable",
      "type": "function"
    },
    {
      "inputs": [
        {
          "internalType": "address",
          "name": "to",
          "type": "address"
        },
        {
          "internalType": "uint256",
          "name": "tokenId",
          "type": "uint256"
        }
      ],
      "name": "approve",
      "outputs": [],
      "stateMutability": "nonpayable",
      "type": "function"
    },
    {
      "inputs": [
        {
          "internalType": "address",
          "name": "owner",
          "type": "address"
        }
      ],
      "name": "balanceOf",
      "outputs": [
        {
          "internalType": "uint256",
          "name": "",
          "type": "uint256"
        }
      ],
      "stateMutability": "view",
      "type": "function"
    },
    {
      "inputs": [],
      "name": "baseExtension",
      "outputs": [
        {
          "internalType": "string",
          "name": "",
          "type": "string"
        }
      ],
      "stateMutability": "view",
      "type": "function"
    },
    {
      "inputs": [
        {
          "internalType": "uint256",
          "name": "tokenId",
          "type": "uint256"
        }
      ],
      "name": "burn",
      "outputs": [],
      "stateMutability": "nonpayable",
      "type": "function"
    },
    {
      "inputs": [
        {
          "internalType": "uint256",
          "name": "tokenId",
          "type": "uint256"
        }
      ],
      "name": "getApproved",
      "outputs": [
        {
          "internalType": "address",
          "name": "",
          "type": "address"
        }
      ],
      "stateMutability": "view",
      "type": "function"
    },
    {
      "inputs": [],
      "name": "hiddenMetadataUri",
      "outputs": [
        {
          "internalType": "string",
          "name": "",
          "type": "string"
        }
      ],
      "stateMutability": "view",
      "type": "function"
    },
    {
      "inputs": [
        {
          "internalType": "address",
          "name": "owner",
          "type": "address"
        },
        {
          "internalType": "address",
          "name": "operator",
          "type": "address"
        }
      ],
      "name": "isApprovedForAll",
      "outputs": [
        {
          "internalType": "bool",
          "name": "",
          "type": "bool"
        }
      ],
      "stateMutability": "view",
      "type": "function"
    },
    {
      "inputs": [],
      "name": "mTL",
      "outputs": [
        {
          "internalType": "uint256",
          "name": "",
          "type": "uint256"
        }
      ],
      "stateMutability": "view",
      "type": "function"
    },
    {
      "inputs": [],
      "name": "maxAfterHoursMonsterMints",
      "outputs": [
        {
          "internalType": "uint256",
          "name": "",
          "type": "uint256"
        }
      ],
      "stateMutability": "view",
      "type": "function"
    },
    {
      "inputs": [
        {
          "internalType": "address",
          "name": "to",
          "type": "address"
        },
        {
          "internalType": "uint256",
          "name": "amount",
          "type": "uint256"
        }
      ],
      "name": "monsterMint",
      "outputs": [],
      "stateMutability": "nonpayable",
      "type": "function"
    },
    {
      "inputs": [],
      "name": "name",
      "outputs": [
        {
          "internalType": "string",
          "name": "",
          "type": "string"
        }
      ],
      "stateMutability": "view",
      "type": "function"
    },
    {
      "inputs": [
        {
          "internalType": "bytes32",
          "name": "mThree",
          "type": "bytes32"
        },
        {
          "internalType": "uint256",
          "name": "quantity",
          "type": "uint256"
        }
      ],
      "name": "openMonsterMint",
      "outputs": [],
      "stateMutability": "payable",
      "type": "function"
    },
    {
      "inputs": [],
      "name": "owner",
      "outputs": [
        {
          "internalType": "address",
          "name": "",
          "type": "address"
        }
      ],
      "stateMutability": "view",
      "type": "function"
    },
    {
      "inputs": [
        {
          "internalType": "uint256",
          "name": "tokenId",
          "type": "uint256"
        }
      ],
      "name": "ownerOf",
      "outputs": [
        {
          "internalType": "address",
          "name": "",
          "type": "address"
        }
      ],
      "stateMutability": "view",
      "type": "function"
    },
    {
      "inputs": [],
      "name": "privateMintIsOpen",
      "outputs": [
        {
          "internalType": "bool",
          "name": "",
          "type": "bool"
        }
      ],
      "stateMutability": "view",
      "type": "function"
    },
    {
      "inputs": [],
      "name": "publicMintIsOpen",
      "outputs": [
        {
          "internalType": "bool",
          "name": "",
          "type": "bool"
        }
      ],
      "stateMutability": "view",
      "type": "function"
    },
    {
      "inputs": [],
      "name": "renounceOwnership",
      "outputs": [],
      "stateMutability": "nonpayable",
      "type": "function"
    },
    {
      "inputs": [],
      "name": "revealed",
      "outputs": [
        {
          "internalType": "bool",
          "name": "",
          "type": "bool"
        }
      ],
      "stateMutability": "view",
      "type": "function"
    },
    {
      "inputs": [
        {
          "internalType": "address",
          "name": "from",
          "type": "address"
        },
        {
          "internalType": "address",
          "name": "to",
          "type": "address"
        },
        {
          "internalType": "uint256",
          "name": "tokenId",
          "type": "uint256"
        }
      ],
      "name": "safeTransferFrom",
      "outputs": [],
      "stateMutability": "nonpayable",
      "type": "function"
    },
    {
      "inputs": [
        {
          "internalType": "address",
          "name": "from",
          "type": "address"
        },
        {
          "internalType": "address",
          "name": "to",
          "type": "address"
        },
        {
          "internalType": "uint256",
          "name": "tokenId",
          "type": "uint256"
        },
        {
          "internalType": "bytes",
          "name": "_data",
          "type": "bytes"
        }
      ],
      "name": "safeTransferFrom",
      "outputs": [],
      "stateMutability": "nonpayable",
      "type": "function"
    },
    {
      "inputs": [
        {
          "internalType": "address",
          "name": "operator",
          "type": "address"
        },
        {
          "internalType": "bool",
          "name": "approved",
          "type": "bool"
        }
      ],
      "name": "setApprovalForAll",
      "outputs": [],
      "stateMutability": "nonpayable",
      "type": "function"
    },
    {
      "inputs": [
        {
          "internalType": "string",
          "name": "_baseExtension",
          "type": "string"
        }
      ],
      "name": "setBaseExtension",
      "outputs": [],
      "stateMutability": "nonpayable",
      "type": "function"
    },
    {
      "inputs": [
        {
          "internalType": "string",
          "name": "newBaseURI",
          "type": "string"
        }
      ],
      "name": "setBaseURI",
      "outputs": [],
      "stateMutability": "nonpayable",
      "type": "function"
    },
    {
      "inputs": [
        {
          "internalType": "uint256",
          "name": "amount",
          "type": "uint256"
        }
      ],
      "name": "setFreeMints",
      "outputs": [],
      "stateMutability": "nonpayable",
      "type": "function"
    },
    {
      "inputs": [
        {
          "internalType": "string",
          "name": "_hiddenMetadataUri",
          "type": "string"
        }
      ],
      "name": "setHiddenMetadataUri",
      "outputs": [],
      "stateMutability": "nonpayable",
      "type": "function"
    },
    {
      "inputs": [
        {
          "internalType": "uint256",
          "name": "newPrice",
          "type": "uint256"
        },
        {
          "internalType": "uint256",
          "name": "newWhitelistTokenPrice",
          "type": "uint256"
        },
        {
          "internalType": "uint256",
          "name": "setopenMonsterMintLimit",
          "type": "uint256"
        },
        {
          "internalType": "uint256",
          "name": "setafterHoursMonsterMintLimit",
          "type": "uint256"
        },
        {
          "internalType": "bool",
          "name": "setPublicMintState",
          "type": "bool"
        },
        {
          "internalType": "bool",
          "name": "setPrivateMintState",
          "type": "bool"
        }
      ],
      "name": "setParams",
      "outputs": [],
      "stateMutability": "nonpayable",
      "type": "function"
    },
    {
      "inputs": [
        {
          "internalType": "bool",
          "name": "_state",
          "type": "bool"
        }
      ],
      "name": "setRevealed",
      "outputs": [],
      "stateMutability": "nonpayable",
      "type": "function"
    },
    {
      "inputs": [
        {
          "internalType": "uint256",
          "name": "newPrice",
          "type": "uint256"
        }
      ],
      "name": "setTokenPrice",
      "outputs": [],
      "stateMutability": "nonpayable",
      "type": "function"
    },
    {
      "inputs": [
        {
          "internalType": "uint256",
          "name": "newMintLimit",
          "type": "uint256"
        }
      ],
      "name": "setTransactionMintLimit",
      "outputs": [],
      "stateMutability": "nonpayable",
      "type": "function"
    },
    {
      "inputs": [
        {
          "internalType": "address",
          "name": "newVault",
          "type": "address"
        }
      ],
      "name": "setVaultAddress",
      "outputs": [],
      "stateMutability": "nonpayable",
      "type": "function"
    },
    {
      "inputs": [
        {
          "internalType": "uint256",
          "name": "newprivateMintLimit",
          "type": "uint256"
        }
      ],
      "name": "setWhitelistTransactionMintLimit",
      "outputs": [],
      "stateMutability": "nonpayable",
      "type": "function"
    },
    {
      "inputs": [
        {
          "internalType": "bytes4",
          "name": "interfaceId",
          "type": "bytes4"
        }
      ],
      "name": "supportsInterface",
      "outputs": [
        {
          "internalType": "bool",
          "name": "",
          "type": "bool"
        }
      ],
      "stateMutability": "view",
      "type": "function"
    },
    {
      "inputs": [],
      "name": "symbol",
      "outputs": [
        {
          "internalType": "string",
          "name": "",
          "type": "string"
        }
      ],
      "stateMutability": "view",
      "type": "function"
    },
    {
      "inputs": [],
      "name": "toggleCooking",
      "outputs": [],
      "stateMutability": "nonpayable",
      "type": "function"
    },
    {
      "inputs": [],
      "name": "togglePresaleCooking",
      "outputs": [],
      "stateMutability": "nonpayable",
      "type": "function"
    },
    {
      "inputs": [],
      "name": "tokenPrice",
      "outputs": [
        {
          "internalType": "uint256",
          "name": "",
          "type": "uint256"
        }
      ],
      "stateMutability": "view",
      "type": "function"
    },
    {
      "inputs": [
        {
          "internalType": "uint256",
          "name": "_tokenId",
          "type": "uint256"
        }
      ],
      "name": "tokenURI",
      "outputs": [
        {
          "internalType": "string",
          "name": "",
          "type": "string"
        }
      ],
      "stateMutability": "view",
      "type": "function"
    },
    {
      "inputs": [],
      "name": "totalSupply",
      "outputs": [
        {
          "internalType": "uint256",
          "name": "",
          "type": "uint256"
        }
      ],
      "stateMutability": "view",
      "type": "function"
    },
    {
      "inputs": [
        {
          "internalType": "address",
          "name": "from",
          "type": "address"
        },
        {
          "internalType": "address",
          "name": "to",
          "type": "address"
        },
        {
          "internalType": "uint256",
          "name": "tokenId",
          "type": "uint256"
        }
      ],
      "name": "transferFrom",
      "outputs": [],
      "stateMutability": "nonpayable",
      "type": "function"
    },
    {
      "inputs": [
        {
          "internalType": "address",
          "name": "newOwner",
          "type": "address"
        }
      ],
      "name": "transferOwnership",
      "outputs": [],
      "stateMutability": "nonpayable",
      "type": "function"
    },
    {
      "inputs": [],
      "name": "whitelistTokenPrice",
      "outputs": [
        {
          "internalType": "uint256",
          "name": "",
          "type": "uint256"
        }
      ],
      "stateMutability": "view",
      "type": "function"
    },
    {
      "inputs": [],
      "name": "whitelistmTL",
      "outputs": [
        {
          "internalType": "uint256",
          "name": "",
          "type": "uint256"
        }
      ],
      "stateMutability": "view",
      "type": "function"
    },
    {
      "inputs": [],
      "name": "withdraw",
      "outputs": [],
      "stateMutability": "nonpayable",
      "type": "function"
    },
    {
      "stateMutability": "payable",
      "type": "receive"
    }
  ],
  "bytecode": "0x60146009819055600a5566f8b0a10e470000600b5566c3663566a58000600c55611770600d55600e805462ffffff191661010017905560c06040526005608081905264173539b7b760d91b60a09081526200005e916010919062000547565b50601280546001600160a01b03191690553480156200007c57600080fd5b506040516200380d3803806200380d8339810160408190526200009f91620006c7565b6040518060400160405280601081526020016f14dd5a5d1cd3db94dd5a5d1cc813919560821b81525060405180604001604052806003815260200162534f5360e81b815250620000fe620000f8620001a160201b60201c565b620001a5565b81516200011390600190602085019062000547565b5080516200012990600290602084019062000547565b5050601280546001600160a01b0319166001600160a01b038616179055506200015f6008620001f5602090811b62001dcd17901c565b6200016c336000620001fe565b81516200018190600f90602085019062000547565b5080516200019790601190602084019062000547565b505050506200083e565b3390565b600080546001600160a01b038381166001600160a01b0319831681178455604051919092169283917f8be0079c531659141344cd1fd0a4f28419497f9722a3daafe3b4186f6b6457e09190a35050565b80546001019055565b620002208282604051806020016040528060008152506200022460201b60201c565b5050565b620002308383620002a0565b6200023f6000848484620003e8565b6200029b5760405162461bcd60e51b81526020600482015260326024820152600080516020620037ed83398151915260448201527131b2b4bb32b91034b6b83632b6b2b73a32b960711b60648201526084015b60405180910390fd5b505050565b6001600160a01b038216620002f85760405162461bcd60e51b815260206004820181905260248201527f4552433732313a206d696e7420746f20746865207a65726f2061646472657373604482015260640162000292565b6000818152600360205260409020546001600160a01b0316156200035f5760405162461bcd60e51b815260206004820152601c60248201527f4552433732313a20746f6b656e20616c7265616479206d696e74656400000000604482015260640162000292565b6001600160a01b03821660009081526004602052604081208054600192906200038a90849062000751565b909155505060008181526003602052604080822080546001600160a01b0319166001600160a01b03861690811790915590518392907fddf252ad1be2c89b69c2b068fc378daa952ba7f163c4a11628f55a4df523b3ef908290a45050565b600062000409846001600160a01b03166200054160201b62001dd61760201c565b156200053557604051630a85bd0160e11b81526001600160a01b0385169063150b7a02906200044390339089908890889060040162000778565b6020604051808303816000875af192505050801562000481575060408051601f3d908101601f191682019092526200047e91810190620007ce565b60015b6200051a573d808015620004b2576040519150601f19603f3d011682016040523d82523d6000602084013e620004b7565b606091505b508051620005125760405162461bcd60e51b81526020600482015260326024820152600080516020620037ed83398151915260448201527131b2b4bb32b91034b6b83632b6b2b73a32b960711b606482015260840162000292565b805181602001fd5b6001600160e01b031916630a85bd0160e11b14905062000539565b5060015b949350505050565b3b151590565b828054620005559062000801565b90600052602060002090601f016020900481019282620005795760008555620005c4565b82601f106200059457805160ff1916838001178555620005c4565b82800160010185558215620005c4579182015b82811115620005c4578251825591602001919060010190620005a7565b50620005d2929150620005d6565b5090565b5b80821115620005d25760008155600101620005d7565b634e487b7160e01b600052604160045260246000fd5b60005b838110156200062057818101518382015260200162000606565b8381111562000630576000848401525b50505050565b600082601f8301126200064857600080fd5b81516001600160401b0380821115620006655762000665620005ed565b604051601f8301601f19908116603f01168101908282118183101715620006905762000690620005ed565b81604052838152866020858801011115620006aa57600080fd5b620006bd84602083016020890162000603565b9695505050505050565b600080600060608486031215620006dd57600080fd5b83516001600160a01b0381168114620006f557600080fd5b60208501519093506001600160401b03808211156200071357600080fd5b620007218783880162000636565b935060408601519150808211156200073857600080fd5b50620007478682870162000636565b9150509250925092565b600082198211156200077357634e487b7160e01b600052601160045260246000fd5b500190565b600060018060a01b038087168352808616602084015250836040830152608060608301528251806080840152620007b78160a085016020870162000603565b601f01601f19169190910160a00195945050505050565b600060208284031215620007e157600080fd5b81516001600160e01b031981168114620007fa57600080fd5b9392505050565b600181811c908216806200081657607f821691505b602082108114156200083857634e487b7160e01b600052602260045260246000fd5b50919050565b612f9f806200084e6000396000f3fe6080604052600436106102f65760003560e01c806385535cc51161018f578063cf02027e116100e1578063ee28de521161008a578063f829058511610064578063f82905851461080a578063fa468ead1461081d578063fe471ed51461083357600080fd5b8063ee28de52146107b5578063f2fde38b146107d4578063f47c84c5146107f457600080fd5b8063e0a80853116100bb578063e0a808531461072c578063e7db8fb01461074c578063e985e9c51461076c57600080fd5b8063cf02027e146106e1578063da3ef23f146106f7578063dea43ab81461071757600080fd5b8063a15d60c511610143578063b88d4fde1161011d578063b88d4fde1461068c578063c6682862146106ac578063c87b56dd146106c157600080fd5b8063a15d60c51461063d578063a22cb46514610657578063a45ba8e71461067757600080fd5b80638da5cb5b116101745780638da5cb5b146105f457806395d89b41146106125780639880980f1461062757600080fd5b806385535cc5146105be57806389d0997c146105de57600080fd5b806342842e0e116102485780636352211e116101fc578063715018a6116101d6578063715018a6146105735780637eb75ba7146105885780637ff9b596146105a857600080fd5b80636352211e146105135780636a61e5fc1461053357806370a082311461055357600080fd5b80634fdd43cb1161022d5780634fdd43cb146104b357806351830227146104d357806355f804b3146104f357600080fd5b806342842e0e1461047357806342966c681461049357600080fd5b80630f1e6828116102aa5780631978894611610284578063197889461461042b57806323b872dd1461043e5780633ccfd60b1461045e57600080fd5b80630f1e6828146103d3578063124fd01c146103f357806318160ddd1461040857600080fd5b8063081812fc116102db578063081812fc14610359578063095ea7b3146103915780630d738aeb146103b357600080fd5b806301ffc9a71461030257806306fdde031461033757600080fd5b366102fd57005b600080fd5b34801561030e57600080fd5b5061032261031d3660046129ad565b610853565b60405190151581526020015b60405180910390f35b34801561034357600080fd5b5061034c610938565b60405161032e9190612a22565b34801561036557600080fd5b50610379610374366004612a35565b6109ca565b6040516001600160a01b03909116815260200161032e565b34801561039d57600080fd5b506103b16103ac366004612a6a565b610a75565b005b3480156103bf57600080fd5b506103b16103ce366004612a35565b610ba7565b3480156103df57600080fd5b506103b16103ee366004612a35565b610c06565b3480156103ff57600080fd5b506103b1610c65565b34801561041457600080fd5b5061041d610cdc565b60405190815260200161032e565b6103b1610439366004612a94565b610cec565b34801561044a57600080fd5b506103b1610459366004612ab6565b610f31565b34801561046a57600080fd5b506103b1610fb8565b34801561047f57600080fd5b506103b161048e366004612ab6565b61104e565b34801561049f57600080fd5b506103b16104ae366004612a35565b611069565b3480156104bf57600080fd5b506103b16104ce366004612b7e565b6110cc565b3480156104df57600080fd5b50600e546103229062010000900460ff1681565b3480156104ff57600080fd5b506103b161050e366004612b7e565b61113d565b34801561051f57600080fd5b5061037961052e366004612a35565b6111aa565b34801561053f57600080fd5b506103b161054e366004612a35565b611235565b34801561055f57600080fd5b5061041d61056e366004612bc7565b611294565b34801561057f57600080fd5b506103b161132e565b34801561059457600080fd5b506103b16105a3366004612a6a565b611394565b3480156105b457600080fd5b5061041d600b5481565b3480156105ca57600080fd5b506103b16105d9366004612bc7565b611494565b3480156105ea57600080fd5b5061041d60095481565b34801561060057600080fd5b506000546001600160a01b0316610379565b34801561061e57600080fd5b5061034c61151d565b34801561063357600080fd5b5061041d600d5481565b34801561064957600080fd5b50600e546103229060ff1681565b34801561066357600080fd5b506103b1610672366004612bf2565b61152c565b34801561068357600080fd5b5061034c611537565b34801561069857600080fd5b506103b16106a7366004612c25565b6115c5565b3480156106b857600080fd5b5061034c61164d565b3480156106cd57600080fd5b5061034c6106dc366004612a35565b61165a565b3480156106ed57600080fd5b5061041d600a5481565b34801561070357600080fd5b506103b1610712366004612b7e565b6117e8565b34801561072357600080fd5b506103b1611855565b34801561073857600080fd5b506103b1610747366004612ca1565b6118c3565b34801561075857600080fd5b506103b1610767366004612a35565b611955565b34801561077857600080fd5b50610322610787366004612cbc565b6001600160a01b03918216600090815260066020908152604080832093909416825291909152205460ff1690565b3480156107c157600080fd5b50600e5461032290610100900460ff1681565b3480156107e057600080fd5b506103b16107ef366004612bc7565b611a06565b34801561080057600080fd5b5061041d610d0581565b6103b1610818366004612a94565b611ae5565b34801561082957600080fd5b5061041d600c5481565b34801561083f57600080fd5b506103b161084e366004612ce6565b611d1d565b60007fffffffff0000000000000000000000000000000000000000000000000000000082167f80ac58cd0000000000000000000000000000000000000000000000000000000014806108e657507fffffffff0000000000000000000000000000000000000000000000000000000082167f5b5e139f00000000000000000000000000000000000000000000000000000000145b8061093257507f01ffc9a7000000000000000000000000000000000000000000000000000000007fffffffff000000000000000000000000000000000000000000000000000000008316145b92915050565b60606001805461094790612d3e565b80601f016020809104026020016040519081016040528092919081815260200182805461097390612d3e565b80156109c05780601f10610995576101008083540402835291602001916109c0565b820191906000526020600020905b8154815290600101906020018083116109a357829003601f168201915b5050505050905090565b6000818152600360205260408120546001600160a01b0316610a595760405162461bcd60e51b815260206004820152602c60248201527f4552433732313a20617070726f76656420717565727920666f72206e6f6e657860448201527f697374656e7420746f6b656e000000000000000000000000000000000000000060648201526084015b60405180910390fd5b506000908152600560205260409020546001600160a01b031690565b6000610a80826111aa565b9050806001600160a01b0316836001600160a01b03161415610b0a5760405162461bcd60e51b815260206004820152602160248201527f4552433732313a20617070726f76616c20746f2063757272656e74206f776e6560448201527f72000000000000000000000000000000000000000000000000000000000000006064820152608401610a50565b336001600160a01b0382161480610b265750610b268133610787565b610b985760405162461bcd60e51b815260206004820152603860248201527f4552433732313a20617070726f76652063616c6c6572206973206e6f74206f7760448201527f6e6572206e6f7220617070726f76656420666f7220616c6c00000000000000006064820152608401610a50565b610ba28383611ddc565b505050565b6000546001600160a01b03163314610c015760405162461bcd60e51b815260206004820181905260248201527f4f776e61626c653a2063616c6c6572206973206e6f7420746865206f776e65726044820152606401610a50565b600a55565b6000546001600160a01b03163314610c605760405162461bcd60e51b815260206004820181905260248201527f4f776e61626c653a2063616c6c6572206973206e6f7420746865206f776e65726044820152606401610a50565b600955565b6000546001600160a01b03163314610cbf5760405162461bcd60e51b815260206004820181905260248201527f4f776e61626c653a2063616c6c6572206973206e6f7420746865206f776e65726044820152606401610a50565b600e805461ff001981166101009182900460ff1615909102179055565b6000610ce760085490565b905090565b33826000604051602001610d6f907f496620796f752077616e7420746f2068656c702066656564207468652068756e81527f67727920616e6420796f752063616e206765742061726f756e6420746865206760208201527f61746520676f20666f722069742e207e546563686f7368690000000000000000604082015260580190565b60405160208183030381529060405280519060200120604051602001610db8907f3c285e5f5e293e00000000000000000000000000000000000000000000000000815260070190565b60408051601f198184030181529190528051602090910120141590506000610ddf60085490565b9050600954851115610e335760405162461bcd60e51b815260206004820152601560248201527f4d696e7420616d6f756e7420746f6f206c6172676500000000000000000000006044820152606401610a50565b610d05610e408683612d8f565b10610e8d5760405162461bcd60e51b815260206004820152601b60248201527f4e6f7420656e6f75676820746f6b656e732072656d61696e696e6700000000006044820152606401610a50565b3485600b54610e9c9190612da7565b1115610eea5760405162461bcd60e51b815260206004820152601560248201527f4e6f7420656e6f7567682065746865722073656e7400000000000000000000006044820152606401610a50565b60005b85811015610f2857610f03600880546001019055565b610f1633610f118385612d8f565b611e57565b80610f2081612dc6565b915050610eed565b50505050505050565b610f3b3382611e71565b610fad5760405162461bcd60e51b815260206004820152603160248201527f4552433732313a207472616e736665722063616c6c6572206973206e6f74206f60448201527f776e6572206e6f7220617070726f7665640000000000000000000000000000006064820152608401610a50565b610ba2838383611f79565b6000546001600160a01b031633146110125760405162461bcd60e51b815260206004820181905260248201527f4f776e61626c653a2063616c6c6572206973206e6f7420746865206f776e65726044820152606401610a50565b6012546040516001600160a01b03909116904780156108fc02916000818181858888f1935050505015801561104b573d6000803e3d6000fd5b50565b610ba2838383604051806020016040528060008152506115c5565b6000546001600160a01b031633146110c35760405162461bcd60e51b815260206004820181905260248201527f4f776e61626c653a2063616c6c6572206973206e6f7420746865206f776e65726044820152606401610a50565b61104b81612153565b6000546001600160a01b031633146111265760405162461bcd60e51b815260206004820181905260248201527f4f776e61626c653a2063616c6c6572206973206e6f7420746865206f776e65726044820152606401610a50565b80516111399060119060208401906128b0565b5050565b6000546001600160a01b031633146111975760405162461bcd60e51b815260206004820181905260248201527f4f776e61626c653a2063616c6c6572206973206e6f7420746865206f776e65726044820152606401610a50565b805161113990600f9060208401906128b0565b6000818152600360205260408120546001600160a01b0316806109325760405162461bcd60e51b815260206004820152602960248201527f4552433732313a206f776e657220717565727920666f72206e6f6e657869737460448201527f656e7420746f6b656e00000000000000000000000000000000000000000000006064820152608401610a50565b6000546001600160a01b0316331461128f5760405162461bcd60e51b815260206004820181905260248201527f4f776e61626c653a2063616c6c6572206973206e6f7420746865206f776e65726044820152606401610a50565b600b55565b60006001600160a01b0382166113125760405162461bcd60e51b815260206004820152602a60248201527f4552433732313a2062616c616e636520717565727920666f7220746865207a6560448201527f726f2061646472657373000000000000000000000000000000000000000000006064820152608401610a50565b506001600160a01b031660009081526004602052604090205490565b6000546001600160a01b031633146113885760405162461bcd60e51b815260206004820181905260248201527f4f776e61626c653a2063616c6c6572206973206e6f7420746865206f776e65726044820152606401610a50565b611392600061215c565b565b6000546001600160a01b031633146113ee5760405162461bcd60e51b815260206004820181905260248201527f4f776e61626c653a2063616c6c6572206973206e6f7420746865206f776e65726044820152606401610a50565b60006113f960085490565b9050610d056114088383612d8f565b106114555760405162461bcd60e51b815260206004820152601b60248201527f4e6f7420656e6f75676820746f6b656e732072656d61696e696e6700000000006044820152606401610a50565b60005b8281101561148e5761146e600880546001019055565b61147c84610f118385612d8f565b8061148681612dc6565b915050611458565b50505050565b6000546001600160a01b031633146114ee5760405162461bcd60e51b815260206004820181905260248201527f4f776e61626c653a2063616c6c6572206973206e6f7420746865206f776e65726044820152606401610a50565b6012805473ffffffffffffffffffffffffffffffffffffffff19166001600160a01b0392909216919091179055565b60606002805461094790612d3e565b6111393383836121b9565b6011805461154490612d3e565b80601f016020809104026020016040519081016040528092919081815260200182805461157090612d3e565b80156115bd5780601f10611592576101008083540402835291602001916115bd565b820191906000526020600020905b8154815290600101906020018083116115a057829003601f168201915b505050505081565b6115cf3383611e71565b6116415760405162461bcd60e51b815260206004820152603160248201527f4552433732313a207472616e736665722063616c6c6572206973206e6f74206f60448201527f776e6572206e6f7220617070726f7665640000000000000000000000000000006064820152608401610a50565b61148e84848484612288565b6010805461154490612d3e565b6000818152600360205260409020546060906001600160a01b03166116e75760405162461bcd60e51b815260206004820152602f60248201527f4552433732314d657461646174613a2055524920717565727920666f72206e6f60448201527f6e6578697374656e7420746f6b656e00000000000000000000000000000000006064820152608401610a50565b600e5462010000900460ff16611789576011805461170490612d3e565b80601f016020809104026020016040519081016040528092919081815260200182805461173090612d3e565b801561177d5780601f106117525761010080835404028352916020019161177d565b820191906000526020600020905b81548152906001019060200180831161176057829003601f168201915b50505050509050919050565b6000611793612311565b905060008151116117b357604051806020016040528060008152506117e1565b806117bd84612320565b60106040516020016117d193929190612de1565b6040516020818303038152906040525b9392505050565b6000546001600160a01b031633146118425760405162461bcd60e51b815260206004820181905260248201527f4f776e61626c653a2063616c6c6572206973206e6f7420746865206f776e65726044820152606401610a50565b80516111399060109060208401906128b0565b6000546001600160a01b031633146118af5760405162461bcd60e51b815260206004820181905260248201527f4f776e61626c653a2063616c6c6572206973206e6f7420746865206f776e65726044820152606401610a50565b600e805460ff19811660ff90911615179055565b6000546001600160a01b0316331461191d5760405162461bcd60e51b815260206004820181905260248201527f4f776e61626c653a2063616c6c6572206973206e6f7420746865206f776e65726044820152606401610a50565b600e805491151562010000027fffffffffffffffffffffffffffffffffffffffffffffffffffffffffff00ffff909216919091179055565b6000546001600160a01b031633146119af5760405162461bcd60e51b815260206004820181905260248201527f4f776e61626c653a2063616c6c6572206973206e6f7420746865206f776e65726044820152606401610a50565b610d05811115611a015760405162461bcd60e51b815260206004820152601a60248201527f46726565206d696e7420616d6f756e7420746f6f206c617267650000000000006044820152606401610a50565b600d55565b6000546001600160a01b03163314611a605760405162461bcd60e51b815260206004820181905260248201527f4f776e61626c653a2063616c6c6572206973206e6f7420746865206f776e65726044820152606401610a50565b6001600160a01b038116611adc5760405162461bcd60e51b815260206004820152602660248201527f4f776e61626c653a206e6577206f776e657220697320746865207a65726f206160448201527f64647265737300000000000000000000000000000000000000000000000000006064820152608401610a50565b61104b8161215c565b33826000604051602001611b68907f496620796f752077616e7420746f2068656c702066656564207468652068756e81527f67727920616e6420796f752063616e206765742061726f756e6420746865206760208201527f61746520676f20666f722069742e207e546563686f7368690000000000000000604082015260580190565b60405160208183030381529060405280519060200120604051602001611bb1907f3c285e5f5e293e00000000000000000000000000000000000000000000000000815260070190565b60408051601f198184030181529190528051602090910120141590506000611bd860085490565b600d54909150611be88683612d8f565b10611c355760405162461bcd60e51b815260206004820152601f60248201527f4e6f7420656e6f7567682066726565206d696e74732072656d61696e696e67006044820152606401610a50565b3485600c54611c449190612da7565b1115611c925760405162461bcd60e51b815260206004820152601560248201527f4e6f7420656e6f7567682065746865722073656e7400000000000000000000006044820152606401610a50565b600a54851115611ce45760405162461bcd60e51b815260206004820152601560248201527f4d696e7420616d6f756e7420746f6f206c6172676500000000000000000000006044820152606401610a50565b60005b85811015610f2857611cfd600880546001019055565b611d0b33610f118385612d8f565b80611d1581612dc6565b915050611ce7565b6000546001600160a01b03163314611d775760405162461bcd60e51b815260206004820181905260248201527f4f776e61626c653a2063616c6c6572206973206e6f7420746865206f776e65726044820152606401610a50565b600c94909455600b94909455600991909155600a55600e80547fffffffffffffffffffffffffffffffffffffffffffffffffffffffffffff00001692151561ff0019169290921761010091151591909102179055565b80546001019055565b3b151590565b6000818152600560205260409020805473ffffffffffffffffffffffffffffffffffffffff19166001600160a01b0384169081179091558190611e1e826111aa565b6001600160a01b03167f8c5be1e5ebec7d5bd14f71427d1e84f3dd0314c0f7b2291e5b200ac8c7c3b92560405160405180910390a45050565b611139828260405180602001604052806000815250612452565b6000818152600360205260408120546001600160a01b0316611efb5760405162461bcd60e51b815260206004820152602c60248201527f4552433732313a206f70657261746f7220717565727920666f72206e6f6e657860448201527f697374656e7420746f6b656e00000000000000000000000000000000000000006064820152608401610a50565b6000611f06836111aa565b9050806001600160a01b0316846001600160a01b03161480611f415750836001600160a01b0316611f36846109ca565b6001600160a01b0316145b80611f7157506001600160a01b0380821660009081526006602090815260408083209388168352929052205460ff165b949350505050565b826001600160a01b0316611f8c826111aa565b6001600160a01b0316146120085760405162461bcd60e51b815260206004820152602960248201527f4552433732313a207472616e73666572206f6620746f6b656e2074686174206960448201527f73206e6f74206f776e00000000000000000000000000000000000000000000006064820152608401610a50565b6001600160a01b0382166120835760405162461bcd60e51b8152602060048201526024808201527f4552433732313a207472616e7366657220746f20746865207a65726f2061646460448201527f72657373000000000000000000000000000000000000000000000000000000006064820152608401610a50565b61208e600082611ddc565b6001600160a01b03831660009081526004602052604081208054600192906120b7908490612ea5565b90915550506001600160a01b03821660009081526004602052604081208054600192906120e5908490612d8f565b9091555050600081815260036020526040808220805473ffffffffffffffffffffffffffffffffffffffff19166001600160a01b0386811691821790925591518493918716917fddf252ad1be2c89b69c2b068fc378daa952ba7f163c4a11628f55a4df523b3ef91a4505050565b61104b816124db565b600080546001600160a01b0383811673ffffffffffffffffffffffffffffffffffffffff19831681178455604051919092169283917f8be0079c531659141344cd1fd0a4f28419497f9722a3daafe3b4186f6b6457e09190a35050565b816001600160a01b0316836001600160a01b0316141561221b5760405162461bcd60e51b815260206004820152601960248201527f4552433732313a20617070726f766520746f2063616c6c6572000000000000006044820152606401610a50565b6001600160a01b03838116600081815260066020908152604080832094871680845294825291829020805460ff191686151590811790915591519182527f17307eab39ab6107e8899845ad3d59bd9653f200f220920489ca2b5937696c31910160405180910390a3505050565b612293848484611f79565b61229f8484848461251b565b61148e5760405162461bcd60e51b815260206004820152603260248201527f4552433732313a207472616e7366657220746f206e6f6e20455243373231526560448201527f63656976657220696d706c656d656e74657200000000000000000000000000006064820152608401610a50565b6060600f805461094790612d3e565b60608161236057505060408051808201909152600181527f3000000000000000000000000000000000000000000000000000000000000000602082015290565b8160005b811561238a578061237481612dc6565b91506123839050600a83612ed2565b9150612364565b60008167ffffffffffffffff8111156123a5576123a5612af2565b6040519080825280601f01601f1916602001820160405280156123cf576020820181803683370190505b5090505b8415611f71576123e4600183612ea5565b91506123f1600a86612ee6565b6123fc906030612d8f565b60f81b81838151811061241157612411612efa565b60200101907effffffffffffffffffffffffffffffffffffffffffffffffffffffffffffff1916908160001a90535061244b600a86612ed2565b94506123d3565b61245c83836126b9565b612469600084848461251b565b610ba25760405162461bcd60e51b815260206004820152603260248201527f4552433732313a207472616e7366657220746f206e6f6e20455243373231526560448201527f63656976657220696d706c656d656e74657200000000000000000000000000006064820152608401610a50565b6124e481612808565b600081815260076020526040902080546124fd90612d3e565b15905061104b57600081815260076020526040812061104b91612934565b60006001600160a01b0384163b156126ae576040517f150b7a020000000000000000000000000000000000000000000000000000000081526001600160a01b0385169063150b7a0290612578903390899088908890600401612f10565b6020604051808303816000875af19250505080156125b3575060408051601f3d908101601f191682019092526125b091810190612f4c565b60015b612663573d8080156125e1576040519150601f19603f3d011682016040523d82523d6000602084013e6125e6565b606091505b50805161265b5760405162461bcd60e51b815260206004820152603260248201527f4552433732313a207472616e7366657220746f206e6f6e20455243373231526560448201527f63656976657220696d706c656d656e74657200000000000000000000000000006064820152608401610a50565b805181602001fd5b7fffffffff00000000000000000000000000000000000000000000000000000000167f150b7a0200000000000000000000000000000000000000000000000000000000149050611f71565b506001949350505050565b6001600160a01b03821661270f5760405162461bcd60e51b815260206004820181905260248201527f4552433732313a206d696e7420746f20746865207a65726f20616464726573736044820152606401610a50565b6000818152600360205260409020546001600160a01b0316156127745760405162461bcd60e51b815260206004820152601c60248201527f4552433732313a20746f6b656e20616c7265616479206d696e746564000000006044820152606401610a50565b6001600160a01b038216600090815260046020526040812080546001929061279d908490612d8f565b9091555050600081815260036020526040808220805473ffffffffffffffffffffffffffffffffffffffff19166001600160a01b03861690811790915590518392907fddf252ad1be2c89b69c2b068fc378daa952ba7f163c4a11628f55a4df523b3ef908290a45050565b6000612813826111aa565b9050612820600083611ddc565b6001600160a01b0381166000908152600460205260408120805460019290612849908490612ea5565b9091555050600082815260036020526040808220805473ffffffffffffffffffffffffffffffffffffffff19169055518391906001600160a01b038416907fddf252ad1be2c89b69c2b068fc378daa952ba7f163c4a11628f55a4df523b3ef908390a45050565b8280546128bc90612d3e565b90600052602060002090601f0160209004810192826128de5760008555612924565b82601f106128f757805160ff1916838001178555612924565b82800160010185558215612924579182015b82811115612924578251825591602001919060010190612909565b5061293092915061296a565b5090565b50805461294090612d3e565b6000825580601f10612950575050565b601f01602090049060005260206000209081019061104b91905b5b80821115612930576000815560010161296b565b7fffffffff000000000000000000000000000000000000000000000000000000008116811461104b57600080fd5b6000602082840312156129bf57600080fd5b81356117e18161297f565b60005b838110156129e55781810151838201526020016129cd565b8381111561148e5750506000910152565b60008151808452612a0e8160208601602086016129ca565b601f01601f19169290920160200192915050565b6020815260006117e160208301846129f6565b600060208284031215612a4757600080fd5b5035919050565b80356001600160a01b0381168114612a6557600080fd5b919050565b60008060408385031215612a7d57600080fd5b612a8683612a4e565b946020939093013593505050565b60008060408385031215612aa757600080fd5b50508035926020909101359150565b600080600060608486031215612acb57600080fd5b612ad484612a4e565b9250612ae260208501612a4e565b9150604084013590509250925092565b634e487b7160e01b600052604160045260246000fd5b600067ffffffffffffffff80841115612b2357612b23612af2565b604051601f8501601f19908116603f01168101908282118183101715612b4b57612b4b612af2565b81604052809350858152868686011115612b6457600080fd5b858560208301376000602087830101525050509392505050565b600060208284031215612b9057600080fd5b813567ffffffffffffffff811115612ba757600080fd5b8201601f81018413612bb857600080fd5b611f7184823560208401612b08565b600060208284031215612bd957600080fd5b6117e182612a4e565b80358015158114612a6557600080fd5b60008060408385031215612c0557600080fd5b612c0e83612a4e565b9150612c1c60208401612be2565b90509250929050565b60008060008060808587031215612c3b57600080fd5b612c4485612a4e565b9350612c5260208601612a4e565b925060408501359150606085013567ffffffffffffffff811115612c7557600080fd5b8501601f81018713612c8657600080fd5b612c9587823560208401612b08565b91505092959194509250565b600060208284031215612cb357600080fd5b6117e182612be2565b60008060408385031215612ccf57600080fd5b612cd883612a4e565b9150612c1c60208401612a4e565b60008060008060008060c08789031215612cff57600080fd5b86359550602087013594506040870135935060608701359250612d2460808801612be2565b9150612d3260a08801612be2565b90509295509295509295565b600181811c90821680612d5257607f821691505b60208210811415612d7357634e487b7160e01b600052602260045260246000fd5b50919050565b634e487b7160e01b600052601160045260246000fd5b60008219821115612da257612da2612d79565b500190565b6000816000190483118215151615612dc157612dc1612d79565b500290565b6000600019821415612dda57612dda612d79565b5060010190565b600084516020612df48285838a016129ca565b855191840191612e078184848a016129ca565b8554920191600090600181811c9080831680612e2457607f831692505b858310811415612e4257634e487b7160e01b85526022600452602485fd5b808015612e565760018114612e6757612e94565b60ff19851688528388019550612e94565b60008b81526020902060005b85811015612e8c5781548a820152908401908801612e73565b505083880195505b50939b9a5050505050505050505050565b600082821015612eb757612eb7612d79565b500390565b634e487b7160e01b600052601260045260246000fd5b600082612ee157612ee1612ebc565b500490565b600082612ef557612ef5612ebc565b500690565b634e487b7160e01b600052603260045260246000fd5b60006001600160a01b03808716835280861660208401525083604083015260806060830152612f4260808301846129f6565b9695505050505050565b600060208284031215612f5e57600080fd5b81516117e18161297f56fea264697066735822122027d082d73036348924903b0fa9ca48c31bf02e02d9f976d022fdbc92d6ada17a64736f6c634300080b00334552433732313a207472616e7366657220746f206e6f6e204552433732315265",
  "linkReferences": {},
  "deployedLinkReferences": {}
}