{
  "_format": "hh-sol-artifact-1",
  "contractName": "SuitsOnSuits",
  "sourceName": "contracts/SuitsOnSuits.sol",
  "abi": [
    {
      "inputs": [
        {
          "internalType": "address",
          "name": "_vault",
          "type": "address"
        },
        {
          "internalType": "address",
          "name": "_signer",
          "type": "address"
        },
        {
          "internalType": "string",
          "name": "__baseTokenURI",
          "type": "string"
        },
        {
          "internalType": "string",
          "name": "_hiddenMetadataUri",
          "type": "string"
        },
        {
          "internalType": "address[]",
          "name": "_payees",
          "type": "address[]"
        },
        {
          "internalType": "uint256[]",
          "name": "_shares",
          "type": "uint256[]"
        }
      ],
      "stateMutability": "payable",
      "type": "constructor"
    },
    {
      "anonymous": false,
      "inputs": [
        {
          "indexed": true,
          "internalType": "address",
          "name": "owner",
          "type": "address"
        },
        {
          "indexed": true,
          "internalType": "address",
          "name": "approved",
          "type": "address"
        },
        {
          "indexed": true,
          "internalType": "uint256",
          "name": "tokenId",
          "type": "uint256"
        }
      ],
      "name": "Approval",
      "type": "event"
    },
    {
      "anonymous": false,
      "inputs": [
        {
          "indexed": true,
          "internalType": "address",
          "name": "owner",
          "type": "address"
        },
        {
          "indexed": true,
          "internalType": "address",
          "name": "operator",
          "type": "address"
        },
        {
          "indexed": false,
          "internalType": "bool",
          "name": "approved",
          "type": "bool"
        }
      ],
      "name": "ApprovalForAll",
      "type": "event"
    },
    {
      "anonymous": false,
      "inputs": [
        {
          "indexed": true,
          "internalType": "contract IERC20",
          "name": "token",
          "type": "address"
        },
        {
          "indexed": false,
          "internalType": "address",
          "name": "to",
          "type": "address"
        },
        {
          "indexed": false,
          "internalType": "uint256",
          "name": "amount",
          "type": "uint256"
        }
      ],
      "name": "ERC20PaymentReleased",
      "type": "event"
    },
    {
      "anonymous": false,
      "inputs": [
        {
          "indexed": true,
          "internalType": "address",
          "name": "previousOwner",
          "type": "address"
        },
        {
          "indexed": true,
          "internalType": "address",
          "name": "newOwner",
          "type": "address"
        }
      ],
      "name": "OwnershipTransferred",
      "type": "event"
    },
    {
      "anonymous": false,
      "inputs": [
        {
          "indexed": false,
          "internalType": "address",
          "name": "account",
          "type": "address"
        },
        {
          "indexed": false,
          "internalType": "uint256",
          "name": "shares",
          "type": "uint256"
        }
      ],
      "name": "PayeeAdded",
      "type": "event"
    },
    {
      "anonymous": false,
      "inputs": [
        {
          "indexed": false,
          "internalType": "address",
          "name": "from",
          "type": "address"
        },
        {
          "indexed": false,
          "internalType": "uint256",
          "name": "amount",
          "type": "uint256"
        }
      ],
      "name": "PaymentReceived",
      "type": "event"
    },
    {
      "anonymous": false,
      "inputs": [
        {
          "indexed": false,
          "internalType": "address",
          "name": "to",
          "type": "address"
        },
        {
          "indexed": false,
          "internalType": "uint256",
          "name": "amount",
          "type": "uint256"
        }
      ],
      "name": "PaymentReleased",
      "type": "event"
    },
    {
      "anonymous": false,
      "inputs": [
        {
          "indexed": true,
          "internalType": "address",
          "name": "from",
          "type": "address"
        },
        {
          "indexed": true,
          "internalType": "address",
          "name": "to",
          "type": "address"
        },
        {
          "indexed": true,
          "internalType": "uint256",
          "name": "tokenId",
          "type": "uint256"
        }
      ],
      "name": "Transfer",
      "type": "event"
    },
    {
      "inputs": [],
      "name": "Author",
      "outputs": [
        {
          "internalType": "string",
          "name": "",
          "type": "string"
        }
      ],
      "stateMutability": "view",
      "type": "function"
    },
    {
      "inputs": [],
      "name": "MAX_TOKENS",
      "outputs": [
        {
          "internalType": "uint256",
          "name": "",
          "type": "uint256"
        }
      ],
      "stateMutability": "view",
      "type": "function"
    },
    {
      "inputs": [
        {
          "internalType": "uint8",
          "name": "quantity",
          "type": "uint8"
        },
        {
          "internalType": "uint8",
          "name": "claimable",
          "type": "uint8"
        },
        {
          "components": [
            {
              "internalType": "bytes32",
              "name": "r",
              "type": "bytes32"
            },
            {
              "internalType": "bytes32",
              "name": "s",
              "type": "bytes32"
            },
            {
              "internalType": "uint8",
              "name": "v",
              "type": "uint8"
            }
          ],
          "internalType": "struct SuitsOnSuits.MonsterPass",
          "name": "monsterPass",
          "type": "tuple"
        }
      ],
      "name": "afterHoursMonsterMint",
      "outputs": [],
      "stateMutability": "payable",
      "type": "function"
    },
    {
      "inputs": [
        {
          "internalType": "address",
          "name": "to",
          "type": "address"
        },
        {
          "internalType": "uint256",
          "name": "tokenId",
          "type": "uint256"
        }
      ],
      "name": "approve",
      "outputs": [],
      "stateMutability": "nonpayable",
      "type": "function"
    },
    {
      "inputs": [
        {
          "internalType": "address",
          "name": "owner",
          "type": "address"
        }
      ],
      "name": "balanceOf",
      "outputs": [
        {
          "internalType": "uint256",
          "name": "",
          "type": "uint256"
        }
      ],
      "stateMutability": "view",
      "type": "function"
    },
    {
      "inputs": [],
      "name": "baseExtension",
      "outputs": [
        {
          "internalType": "string",
          "name": "",
          "type": "string"
        }
      ],
      "stateMutability": "view",
      "type": "function"
    },
    {
      "inputs": [
        {
          "internalType": "uint256",
          "name": "tokenId",
          "type": "uint256"
        }
      ],
      "name": "burn",
      "outputs": [],
      "stateMutability": "nonpayable",
      "type": "function"
    },
    {
      "inputs": [
        {
          "internalType": "uint256",
          "name": "tokenId",
          "type": "uint256"
        }
      ],
      "name": "getApproved",
      "outputs": [
        {
          "internalType": "address",
          "name": "",
          "type": "address"
        }
      ],
      "stateMutability": "view",
      "type": "function"
    },
    {
      "inputs": [],
      "name": "hiddenMetadataUri",
      "outputs": [
        {
          "internalType": "string",
          "name": "",
          "type": "string"
        }
      ],
      "stateMutability": "view",
      "type": "function"
    },
    {
      "inputs": [
        {
          "internalType": "address",
          "name": "owner",
          "type": "address"
        },
        {
          "internalType": "address",
          "name": "operator",
          "type": "address"
        }
      ],
      "name": "isApprovedForAll",
      "outputs": [
        {
          "internalType": "bool",
          "name": "",
          "type": "bool"
        }
      ],
      "stateMutability": "view",
      "type": "function"
    },
    {
      "inputs": [],
      "name": "mTL",
      "outputs": [
        {
          "internalType": "uint256",
          "name": "",
          "type": "uint256"
        }
      ],
      "stateMutability": "view",
      "type": "function"
    },
    {
      "inputs": [],
      "name": "maxAfterHoursMonsterMints",
      "outputs": [
        {
          "internalType": "uint256",
          "name": "",
          "type": "uint256"
        }
      ],
      "stateMutability": "view",
      "type": "function"
    },
    {
      "inputs": [
        {
          "internalType": "address",
          "name": "to",
          "type": "address"
        },
        {
          "internalType": "uint256",
          "name": "amount",
          "type": "uint256"
        }
      ],
      "name": "monsterMint",
      "outputs": [],
      "stateMutability": "nonpayable",
      "type": "function"
    },
    {
      "inputs": [],
      "name": "name",
      "outputs": [
        {
          "internalType": "string",
          "name": "",
          "type": "string"
        }
      ],
      "stateMutability": "view",
      "type": "function"
    },
    {
      "inputs": [
        {
          "internalType": "uint256",
          "name": "quantity",
          "type": "uint256"
        }
      ],
      "name": "openMonsterMint",
      "outputs": [],
      "stateMutability": "payable",
      "type": "function"
    },
    {
      "inputs": [],
      "name": "owner",
      "outputs": [
        {
          "internalType": "address",
          "name": "",
          "type": "address"
        }
      ],
      "stateMutability": "view",
      "type": "function"
    },
    {
      "inputs": [
        {
          "internalType": "uint256",
          "name": "tokenId",
          "type": "uint256"
        }
      ],
      "name": "ownerOf",
      "outputs": [
        {
          "internalType": "address",
          "name": "",
          "type": "address"
        }
      ],
      "stateMutability": "view",
      "type": "function"
    },
    {
      "inputs": [
        {
          "internalType": "uint256",
          "name": "index",
          "type": "uint256"
        }
      ],
      "name": "payee",
      "outputs": [
        {
          "internalType": "address",
          "name": "",
          "type": "address"
        }
      ],
      "stateMutability": "view",
      "type": "function"
    },
    {
      "inputs": [],
      "name": "privateMintIsOpen",
      "outputs": [
        {
          "internalType": "bool",
          "name": "",
          "type": "bool"
        }
      ],
      "stateMutability": "view",
      "type": "function"
    },
    {
      "inputs": [],
      "name": "publicMintIsOpen",
      "outputs": [
        {
          "internalType": "bool",
          "name": "",
          "type": "bool"
        }
      ],
      "stateMutability": "view",
      "type": "function"
    },
    {
      "inputs": [
        {
          "internalType": "address payable",
          "name": "account",
          "type": "address"
        }
      ],
      "name": "release",
      "outputs": [],
      "stateMutability": "nonpayable",
      "type": "function"
    },
    {
      "inputs": [
        {
          "internalType": "contract IERC20",
          "name": "token",
          "type": "address"
        },
        {
          "internalType": "address",
          "name": "account",
          "type": "address"
        }
      ],
      "name": "release",
      "outputs": [],
      "stateMutability": "nonpayable",
      "type": "function"
    },
    {
      "inputs": [
        {
          "internalType": "contract IERC20",
          "name": "token",
          "type": "address"
        },
        {
          "internalType": "address",
          "name": "account",
          "type": "address"
        }
      ],
      "name": "released",
      "outputs": [
        {
          "internalType": "uint256",
          "name": "",
          "type": "uint256"
        }
      ],
      "stateMutability": "view",
      "type": "function"
    },
    {
      "inputs": [
        {
          "internalType": "address",
          "name": "account",
          "type": "address"
        }
      ],
      "name": "released",
      "outputs": [
        {
          "internalType": "uint256",
          "name": "",
          "type": "uint256"
        }
      ],
      "stateMutability": "view",
      "type": "function"
    },
    {
      "inputs": [],
      "name": "renounceOwnership",
      "outputs": [],
      "stateMutability": "nonpayable",
      "type": "function"
    },
    {
      "inputs": [],
      "name": "revealed",
      "outputs": [
        {
          "internalType": "bool",
          "name": "",
          "type": "bool"
        }
      ],
      "stateMutability": "view",
      "type": "function"
    },
    {
      "inputs": [
        {
          "internalType": "address",
          "name": "from",
          "type": "address"
        },
        {
          "internalType": "address",
          "name": "to",
          "type": "address"
        },
        {
          "internalType": "uint256",
          "name": "tokenId",
          "type": "uint256"
        }
      ],
      "name": "safeTransferFrom",
      "outputs": [],
      "stateMutability": "nonpayable",
      "type": "function"
    },
    {
      "inputs": [
        {
          "internalType": "address",
          "name": "from",
          "type": "address"
        },
        {
          "internalType": "address",
          "name": "to",
          "type": "address"
        },
        {
          "internalType": "uint256",
          "name": "tokenId",
          "type": "uint256"
        },
        {
          "internalType": "bytes",
          "name": "_data",
          "type": "bytes"
        }
      ],
      "name": "safeTransferFrom",
      "outputs": [],
      "stateMutability": "nonpayable",
      "type": "function"
    },
    {
      "inputs": [
        {
          "internalType": "address",
          "name": "operator",
          "type": "address"
        },
        {
          "internalType": "bool",
          "name": "approved",
          "type": "bool"
        }
      ],
      "name": "setApprovalForAll",
      "outputs": [],
      "stateMutability": "nonpayable",
      "type": "function"
    },
    {
      "inputs": [
        {
          "internalType": "string",
          "name": "_baseExtension",
          "type": "string"
        }
      ],
      "name": "setBaseExtension",
      "outputs": [],
      "stateMutability": "nonpayable",
      "type": "function"
    },
    {
      "inputs": [
        {
          "internalType": "string",
          "name": "newBaseURI",
          "type": "string"
        }
      ],
      "name": "setBaseURI",
      "outputs": [],
      "stateMutability": "nonpayable",
      "type": "function"
    },
    {
      "inputs": [
        {
          "internalType": "uint256",
          "name": "amount",
          "type": "uint256"
        }
      ],
      "name": "setFreeMints",
      "outputs": [],
      "stateMutability": "nonpayable",
      "type": "function"
    },
    {
      "inputs": [
        {
          "internalType": "string",
          "name": "_hiddenMetadataUri",
          "type": "string"
        }
      ],
      "name": "setHiddenMetadataUri",
      "outputs": [],
      "stateMutability": "nonpayable",
      "type": "function"
    },
    {
      "inputs": [
        {
          "internalType": "uint256",
          "name": "newPrice",
          "type": "uint256"
        },
        {
          "internalType": "uint256",
          "name": "newWhitelistTokenPrice",
          "type": "uint256"
        },
        {
          "internalType": "uint256",
          "name": "setopenMonsterMintLimit",
          "type": "uint256"
        },
        {
          "internalType": "uint256",
          "name": "setafterHoursMonsterMintLimit",
          "type": "uint256"
        },
        {
          "internalType": "bool",
          "name": "setPublicMintState",
          "type": "bool"
        },
        {
          "internalType": "bool",
          "name": "setPrivateMintState",
          "type": "bool"
        }
      ],
      "name": "setParams",
      "outputs": [],
      "stateMutability": "nonpayable",
      "type": "function"
    },
    {
      "inputs": [
        {
          "internalType": "bool",
          "name": "_state",
          "type": "bool"
        }
      ],
      "name": "setRevealed",
      "outputs": [],
      "stateMutability": "nonpayable",
      "type": "function"
    },
    {
      "inputs": [
        {
          "internalType": "address",
          "name": "newSigner",
          "type": "address"
        }
      ],
      "name": "setSignerAddress",
      "outputs": [],
      "stateMutability": "nonpayable",
      "type": "function"
    },
    {
      "inputs": [
        {
          "internalType": "uint256",
          "name": "newPrice",
          "type": "uint256"
        }
      ],
      "name": "setTokenPrice",
      "outputs": [],
      "stateMutability": "nonpayable",
      "type": "function"
    },
    {
      "inputs": [
        {
          "internalType": "uint256",
          "name": "newMintLimit",
          "type": "uint256"
        }
      ],
      "name": "setTransactionMintLimit",
      "outputs": [],
      "stateMutability": "nonpayable",
      "type": "function"
    },
    {
      "inputs": [
        {
          "internalType": "address",
          "name": "newVault",
          "type": "address"
        }
      ],
      "name": "setVaultAddress",
      "outputs": [],
      "stateMutability": "nonpayable",
      "type": "function"
    },
    {
      "inputs": [
        {
          "internalType": "uint256",
          "name": "newprivateMintLimit",
          "type": "uint256"
        }
      ],
      "name": "setWhitelistTransactionMintLimit",
      "outputs": [],
      "stateMutability": "nonpayable",
      "type": "function"
    },
    {
      "inputs": [
        {
          "internalType": "address",
          "name": "account",
          "type": "address"
        }
      ],
      "name": "shares",
      "outputs": [
        {
          "internalType": "uint256",
          "name": "",
          "type": "uint256"
        }
      ],
      "stateMutability": "view",
      "type": "function"
    },
    {
      "inputs": [
        {
          "internalType": "bytes4",
          "name": "interfaceId",
          "type": "bytes4"
        }
      ],
      "name": "supportsInterface",
      "outputs": [
        {
          "internalType": "bool",
          "name": "",
          "type": "bool"
        }
      ],
      "stateMutability": "view",
      "type": "function"
    },
    {
      "inputs": [],
      "name": "symbol",
      "outputs": [
        {
          "internalType": "string",
          "name": "",
          "type": "string"
        }
      ],
      "stateMutability": "view",
      "type": "function"
    },
    {
      "inputs": [],
      "name": "togglePresaleMint",
      "outputs": [],
      "stateMutability": "nonpayable",
      "type": "function"
    },
    {
      "inputs": [],
      "name": "togglePublicMint",
      "outputs": [],
      "stateMutability": "nonpayable",
      "type": "function"
    },
    {
      "inputs": [],
      "name": "tokenPrice",
      "outputs": [
        {
          "internalType": "uint256",
          "name": "",
          "type": "uint256"
        }
      ],
      "stateMutability": "view",
      "type": "function"
    },
    {
      "inputs": [
        {
          "internalType": "uint256",
          "name": "_tokenId",
          "type": "uint256"
        }
      ],
      "name": "tokenURI",
      "outputs": [
        {
          "internalType": "string",
          "name": "",
          "type": "string"
        }
      ],
      "stateMutability": "view",
      "type": "function"
    },
    {
      "inputs": [
        {
          "internalType": "contract IERC20",
          "name": "token",
          "type": "address"
        }
      ],
      "name": "totalReleased",
      "outputs": [
        {
          "internalType": "uint256",
          "name": "",
          "type": "uint256"
        }
      ],
      "stateMutability": "view",
      "type": "function"
    },
    {
      "inputs": [],
      "name": "totalReleased",
      "outputs": [
        {
          "internalType": "uint256",
          "name": "",
          "type": "uint256"
        }
      ],
      "stateMutability": "view",
      "type": "function"
    },
    {
      "inputs": [],
      "name": "totalShares",
      "outputs": [
        {
          "internalType": "uint256",
          "name": "",
          "type": "uint256"
        }
      ],
      "stateMutability": "view",
      "type": "function"
    },
    {
      "inputs": [],
      "name": "totalSupply",
      "outputs": [
        {
          "internalType": "uint256",
          "name": "",
          "type": "uint256"
        }
      ],
      "stateMutability": "view",
      "type": "function"
    },
    {
      "inputs": [
        {
          "internalType": "address",
          "name": "from",
          "type": "address"
        },
        {
          "internalType": "address",
          "name": "to",
          "type": "address"
        },
        {
          "internalType": "uint256",
          "name": "tokenId",
          "type": "uint256"
        }
      ],
      "name": "transferFrom",
      "outputs": [],
      "stateMutability": "nonpayable",
      "type": "function"
    },
    {
      "inputs": [
        {
          "internalType": "address",
          "name": "newOwner",
          "type": "address"
        }
      ],
      "name": "transferOwnership",
      "outputs": [],
      "stateMutability": "nonpayable",
      "type": "function"
    },
    {
      "inputs": [
        {
          "internalType": "address[]",
          "name": "_payees",
          "type": "address[]"
        },
        {
          "internalType": "uint256[]",
          "name": "_shares",
          "type": "uint256[]"
        }
      ],
      "name": "updateSplitter",
      "outputs": [],
      "stateMutability": "nonpayable",
      "type": "function"
    },
    {
      "inputs": [],
      "name": "whitelistTokenPrice",
      "outputs": [
        {
          "internalType": "uint256",
          "name": "",
          "type": "uint256"
        }
      ],
      "stateMutability": "view",
      "type": "function"
    },
    {
      "inputs": [],
      "name": "whitelistmTL",
      "outputs": [
        {
          "internalType": "uint256",
          "name": "",
          "type": "uint256"
        }
      ],
      "stateMutability": "view",
      "type": "function"
    },
    {
      "inputs": [],
      "name": "withdraw",
      "outputs": [],
      "stateMutability": "nonpayable",
      "type": "function"
    },
    {
      "stateMutability": "payable",
      "type": "receive"
    }
  ],
  "bytecode": "0x60146010819055601181905566b1a2bc2ec50000601255600060135561177090556015805462ffffff191661010017905560c06040526005608081905264173539b7b760d91b60a0908152620000599160179190620008c7565b50601980546001600160a01b0319908116909155601a8054909116905560408051808201909152600c8082526b0e8cac6d0dee6d0d25ccae8d60a31b6020909201918252620000ab91601c91620008c7565b5060405162004d3d38038062004d3d833981016040819052620000ce9162000b76565b81816040518060400160405280601081526020016f14dd5a5d1cd3db94dd5a5d1cc813919560821b81525060405180604001604052806003815260200162534f5360e81b8152506200012f620001296200033760201b60201c565b6200033b565b815162000144906001906020850190620008c7565b5080516200015a906002906020840190620008c7565b5050508051825114620001cf5760405162461bcd60e51b815260206004820152603260248201527f5061796d656e7453706c69747465723a2070617965657320616e6420736861726044820152710cae640d8cadccee8d040dad2e6dac2e8c6d60731b60648201526084015b60405180910390fd5b6000825111620002225760405162461bcd60e51b815260206004820152601a60248201527f5061796d656e7453706c69747465723a206e6f207061796565730000000000006044820152606401620001c6565b60005b82518110156200028e576200027983828151811062000248576200024862000c54565b602002602001015183838151811062000265576200026562000c54565b60200260200101516200038b60201b60201c565b80620002858162000c80565b91505062000225565b5050601980546001600160a01b03199081166001600160a01b038a811691909117909255601a805490911691881691909117905550620002db600f62000579602090811b6200261717901c565b620002f2600f6200057960201b620026171760201c565b620002ff33600162000582565b835162000314906016906020870190620008c7565b5082516200032a906018906020860190620008c7565b5050505050505062000d7f565b3390565b600080546001600160a01b038381166001600160a01b0319831681178455604051919092169283917f8be0079c531659141344cd1fd0a4f28419497f9722a3daafe3b4186f6b6457e09190a35050565b6001600160a01b038216620003f85760405162461bcd60e51b815260206004820152602c60248201527f5061796d656e7453706c69747465723a206163636f756e74206973207468652060448201526b7a65726f206164647265737360a01b6064820152608401620001c6565b600081116200044a5760405162461bcd60e51b815260206004820152601d60248201527f5061796d656e7453706c69747465723a207368617265732061726520300000006044820152606401620001c6565b6001600160a01b0382166000908152600a602052604090205415620004c65760405162461bcd60e51b815260206004820152602b60248201527f5061796d656e7453706c69747465723a206163636f756e7420616c726561647960448201526a206861732073686172657360a81b6064820152608401620001c6565b600c8054600181019091557fdf6966c971051c3d54ec59162606531493a51404a002842f56009d7e5cf4a8c70180546001600160a01b0319166001600160a01b0384169081179091556000908152600a602052604090208190556008546200053090829062000c9e565b600855604080516001600160a01b0384168152602081018390527f40c340f65e17194d14ddddb073d3c9f888e3cb52b5aae0c6c7706b4fbc905fac910160405180910390a15050565b80546001019055565b620005a4828260405180602001604052806000815250620005a860201b60201c565b5050565b620005b4838362000620565b620005c3600084848462000768565b6200061b5760405162461bcd60e51b8152602060048201526032602482015260008051602062004d1d83398151915260448201527131b2b4bb32b91034b6b83632b6b2b73a32b960711b6064820152608401620001c6565b505050565b6001600160a01b038216620006785760405162461bcd60e51b815260206004820181905260248201527f4552433732313a206d696e7420746f20746865207a65726f20616464726573736044820152606401620001c6565b6000818152600360205260409020546001600160a01b031615620006df5760405162461bcd60e51b815260206004820152601c60248201527f4552433732313a20746f6b656e20616c7265616479206d696e746564000000006044820152606401620001c6565b6001600160a01b03821660009081526004602052604081208054600192906200070a90849062000c9e565b909155505060008181526003602052604080822080546001600160a01b0319166001600160a01b03861690811790915590518392907fddf252ad1be2c89b69c2b068fc378daa952ba7f163c4a11628f55a4df523b3ef908290a45050565b600062000789846001600160a01b0316620008c160201b620026201760201c565b15620008b557604051630a85bd0160e11b81526001600160a01b0385169063150b7a0290620007c390339089908890889060040162000cb9565b6020604051808303816000875af192505050801562000801575060408051601f3d908101601f19168201909252620007fe9181019062000d0f565b60015b6200089a573d80801562000832576040519150601f19603f3d011682016040523d82523d6000602084013e62000837565b606091505b508051620008925760405162461bcd60e51b8152602060048201526032602482015260008051602062004d1d83398151915260448201527131b2b4bb32b91034b6b83632b6b2b73a32b960711b6064820152608401620001c6565b805181602001fd5b6001600160e01b031916630a85bd0160e11b149050620008b9565b5060015b949350505050565b3b151590565b828054620008d59062000d42565b90600052602060002090601f016020900481019282620008f9576000855562000944565b82601f106200091457805160ff191683800117855562000944565b8280016001018555821562000944579182015b828111156200094457825182559160200191906001019062000927565b506200095292915062000956565b5090565b5b8082111562000952576000815560010162000957565b80516001600160a01b03811681146200098557600080fd5b919050565b634e487b7160e01b600052604160045260246000fd5b604051601f8201601f191681016001600160401b0381118282101715620009cb57620009cb6200098a565b604052919050565b60005b83811015620009f0578181015183820152602001620009d6565b8381111562000a00576000848401525b50505050565b600082601f83011262000a1857600080fd5b81516001600160401b0381111562000a345762000a346200098a565b62000a49601f8201601f1916602001620009a0565b81815284602083860101111562000a5f57600080fd5b620008b9826020830160208701620009d3565b60006001600160401b0382111562000a8e5762000a8e6200098a565b5060051b60200190565b600082601f83011262000aaa57600080fd5b8151602062000ac362000abd8362000a72565b620009a0565b82815260059290921b8401810191818101908684111562000ae357600080fd5b8286015b8481101562000b095762000afb816200096d565b835291830191830162000ae7565b509695505050505050565b600082601f83011262000b2657600080fd5b8151602062000b3962000abd8362000a72565b82815260059290921b8401810191818101908684111562000b5957600080fd5b8286015b8481101562000b09578051835291830191830162000b5d565b60008060008060008060c0878903121562000b9057600080fd5b62000b9b876200096d565b955062000bab602088016200096d565b60408801519095506001600160401b038082111562000bc957600080fd5b62000bd78a838b0162000a06565b9550606089015191508082111562000bee57600080fd5b62000bfc8a838b0162000a06565b9450608089015191508082111562000c1357600080fd5b62000c218a838b0162000a98565b935060a089015191508082111562000c3857600080fd5b5062000c4789828a0162000b14565b9150509295509295509295565b634e487b7160e01b600052603260045260246000fd5b634e487b7160e01b600052601160045260246000fd5b600060001982141562000c975762000c9762000c6a565b5060010190565b6000821982111562000cb45762000cb462000c6a565b500190565b600060018060a01b03808716835280861660208401525083604083015260806060830152825180608084015262000cf88160a0850160208701620009d3565b601f01601f19169190910160a00195945050505050565b60006020828403121562000d2257600080fd5b81516001600160e01b03198116811462000d3b57600080fd5b9392505050565b600181811c9082168062000d5757607f821691505b6020821081141562000d7957634e487b7160e01b600052602260045260246000fd5b50919050565b613f8e8062000d8f6000396000f3fe60806040526004361061037a5760003560e01c806389d0997c116101d1578063ce7c2ac211610102578063e7db8fb0116100a0578063f2fde38b1161006f578063f2fde38b14610a74578063f47c84c514610a94578063fa468ead14610aaa578063fe471ed514610ac057600080fd5b8063e7db8fb0146109d7578063e985e9c5146109f7578063ed4dcde614610a40578063ee28de5214610a5557600080fd5b8063d9f665c4116100dc578063d9f665c41461096f578063da3ef23f14610982578063e0a80853146109a2578063e33b7de3146109c257600080fd5b8063ce7c2ac2146108ed578063cf02027e14610923578063d79779b21461093957600080fd5b8063a15d60c51161016f578063a88c091311610149578063a88c091314610878578063b88d4fde14610898578063c6682862146108b8578063c87b56dd146108cd57600080fd5b8063a15d60c514610829578063a22cb46514610843578063a45ba8e71461086357600080fd5b806395147229116101ab57806395147229146107b557806395d89b41146107c85780639852595c146107dd5780639880980f1461081357600080fd5b806389d0997c146107615780638b83209b146107775780638da5cb5b1461079757600080fd5b8063406072a9116102ab5780636352211e11610249578063715018a611610223578063715018a6146106f65780637eb75ba71461070b5780637ff9b5961461072b57806385535cc51461074157600080fd5b80636352211e146106965780636a61e5fc146106b657806370a08231146106d657600080fd5b806348b750441161028557806348b75044146106165780634fdd43cb14610636578063518302271461065657806355f804b31461067657600080fd5b8063406072a91461059057806342842e0e146105d657806342966c68146105f657600080fd5b806318160ddd1161031857806323b872dd116102f257806323b872dd146105315780633a98ef39146105515780633ccfd60b146105665780634047638d1461057b57600080fd5b806318160ddd146104d957806319165587146104fc57806320b2af521461051c57600080fd5b8063081812fc11610354578063081812fc14610441578063095ea7b3146104795780630d738aeb146104995780630f1e6828146104b957600080fd5b806301ffc9a7146103c8578063046dc166146103fd57806306fdde031461041f57600080fd5b366103c3577f6ef95f06320e7a25a04a175ca677b7052bdd97131872c2192525a629f51be77033604080516001600160a01b0390921682523460208301520160405180910390a1005b600080fd5b3480156103d457600080fd5b506103e86103e3366004613729565b610ae0565b60405190151581526020015b60405180910390f35b34801561040957600080fd5b5061041d61041836600461375b565b610bc5565b005b34801561042b57600080fd5b50610434610c53565b6040516103f491906137d0565b34801561044d57600080fd5b5061046161045c3660046137e3565b610ce5565b6040516001600160a01b0390911681526020016103f4565b34801561048557600080fd5b5061041d6104943660046137fc565b610d8b565b3480156104a557600080fd5b5061041d6104b43660046137e3565b610ebd565b3480156104c557600080fd5b5061041d6104d43660046137e3565b610f1c565b3480156104e557600080fd5b506104ee610f7b565b6040519081526020016103f4565b34801561050857600080fd5b5061041d61051736600461375b565b610f97565b34801561052857600080fd5b50610434611171565b34801561053d57600080fd5b5061041d61054c366004613828565b6111ff565b34801561055d57600080fd5b506008546104ee565b34801561057257600080fd5b5061041d611286565b34801561058757600080fd5b5061041d61131c565b34801561059c57600080fd5b506104ee6105ab366004613869565b6001600160a01b039182166000908152600e6020908152604080832093909416825291909152205490565b3480156105e257600080fd5b5061041d6105f1366004613828565b61138a565b34801561060257600080fd5b5061041d6106113660046137e3565b6113a5565b34801561062257600080fd5b5061041d610631366004613869565b611408565b34801561064257600080fd5b5061041d610651366004613941565b6116a6565b34801561066257600080fd5b506015546103e89062010000900460ff1681565b34801561068257600080fd5b5061041d610691366004613941565b611717565b3480156106a257600080fd5b506104616106b13660046137e3565b611784565b3480156106c257600080fd5b5061041d6106d13660046137e3565b61180f565b3480156106e257600080fd5b506104ee6106f136600461375b565b61186e565b34801561070257600080fd5b5061041d611908565b34801561071757600080fd5b5061041d6107263660046137fc565b61196e565b34801561073757600080fd5b506104ee60125481565b34801561074d57600080fd5b5061041d61075c36600461375b565b611a74565b34801561076d57600080fd5b506104ee60105481565b34801561078357600080fd5b506104616107923660046137e3565b611afd565b3480156107a357600080fd5b506000546001600160a01b0316610461565b61041d6107c33660046139a0565b611b2d565b3480156107d457600080fd5b50610434611e6d565b3480156107e957600080fd5b506104ee6107f836600461375b565b6001600160a01b03166000908152600b602052604090205490565b34801561081f57600080fd5b506104ee60145481565b34801561083557600080fd5b506015546103e89060ff1681565b34801561084f57600080fd5b5061041d61085e366004613a61565b611e7c565b34801561086f57600080fd5b50610434611e87565b34801561088457600080fd5b5061041d610893366004613b1e565b611e94565b3480156108a457600080fd5b5061041d6108b3366004613be0565b611eee565b3480156108c457600080fd5b50610434611f76565b3480156108d957600080fd5b506104346108e83660046137e3565b611f83565b3480156108f957600080fd5b506104ee61090836600461375b565b6001600160a01b03166000908152600a602052604090205490565b34801561092f57600080fd5b506104ee60115481565b34801561094557600080fd5b506104ee61095436600461375b565b6001600160a01b03166000908152600d602052604090205490565b61041d61097d3660046137e3565b612111565b34801561098e57600080fd5b5061041d61099d366004613941565b612261565b3480156109ae57600080fd5b5061041d6109bd366004613c60565b6122ce565b3480156109ce57600080fd5b506009546104ee565b3480156109e357600080fd5b5061041d6109f23660046137e3565b612360565b348015610a0357600080fd5b506103e8610a12366004613869565b6001600160a01b03918216600090815260066020908152604080832093909416825291909152205460ff1690565b348015610a4c57600080fd5b5061041d612411565b348015610a6157600080fd5b506015546103e890610100900460ff1681565b348015610a8057600080fd5b5061041d610a8f36600461375b565b612488565b348015610aa057600080fd5b506104ee610d0581565b348015610ab657600080fd5b506104ee60135481565b348015610acc57600080fd5b5061041d610adb366004613c7d565b612567565b60007fffffffff0000000000000000000000000000000000000000000000000000000082167f80ac58cd000000000000000000000000000000000000000000000000000000001480610b7357507fffffffff0000000000000000000000000000000000000000000000000000000082167f5b5e139f00000000000000000000000000000000000000000000000000000000145b80610bbf57507f01ffc9a7000000000000000000000000000000000000000000000000000000007fffffffff000000000000000000000000000000000000000000000000000000008316145b92915050565b6000546001600160a01b03163314610c245760405162461bcd60e51b815260206004820181905260248201527f4f776e61626c653a2063616c6c6572206973206e6f7420746865206f776e657260448201526064015b60405180910390fd5b601a805473ffffffffffffffffffffffffffffffffffffffff19166001600160a01b0392909216919091179055565b606060018054610c6290613cdb565b80601f0160208091040260200160405190810160405280929190818152602001828054610c8e90613cdb565b8015610cdb5780601f10610cb057610100808354040283529160200191610cdb565b820191906000526020600020905b815481529060010190602001808311610cbe57829003601f168201915b5050505050905090565b6000818152600360205260408120546001600160a01b0316610d6f5760405162461bcd60e51b815260206004820152602c60248201527f4552433732313a20617070726f76656420717565727920666f72206e6f6e657860448201527f697374656e7420746f6b656e00000000000000000000000000000000000000006064820152608401610c1b565b506000908152600560205260409020546001600160a01b031690565b6000610d9682611784565b9050806001600160a01b0316836001600160a01b03161415610e205760405162461bcd60e51b815260206004820152602160248201527f4552433732313a20617070726f76616c20746f2063757272656e74206f776e6560448201527f72000000000000000000000000000000000000000000000000000000000000006064820152608401610c1b565b336001600160a01b0382161480610e3c5750610e3c8133610a12565b610eae5760405162461bcd60e51b815260206004820152603860248201527f4552433732313a20617070726f76652063616c6c6572206973206e6f74206f7760448201527f6e6572206e6f7220617070726f76656420666f7220616c6c00000000000000006064820152608401610c1b565b610eb88383612626565b505050565b6000546001600160a01b03163314610f175760405162461bcd60e51b815260206004820181905260248201527f4f776e61626c653a2063616c6c6572206973206e6f7420746865206f776e65726044820152606401610c1b565b601155565b6000546001600160a01b03163314610f765760405162461bcd60e51b815260206004820181905260248201527f4f776e61626c653a2063616c6c6572206973206e6f7420746865206f776e65726044820152606401610c1b565b601055565b60006001610f88600f5490565b610f929190613d2c565b905090565b6001600160a01b0381166000908152600a60205260409020546110225760405162461bcd60e51b815260206004820152602660248201527f5061796d656e7453706c69747465723a206163636f756e7420686173206e6f2060448201527f73686172657300000000000000000000000000000000000000000000000000006064820152608401610c1b565b600061102d60095490565b6110379047613d43565b90506000611064838361105f866001600160a01b03166000908152600b602052604090205490565b6126a1565b9050806110d95760405162461bcd60e51b815260206004820152602b60248201527f5061796d656e7453706c69747465723a206163636f756e74206973206e6f742060448201527f647565207061796d656e740000000000000000000000000000000000000000006064820152608401610c1b565b6001600160a01b0383166000908152600b602052604081208054839290611101908490613d43565b92505081905550806009600082825461111a9190613d43565b9091555061112a905083826126e7565b604080516001600160a01b0385168152602081018390527fdf20fd1e76bc69d672e4814fafb2c449bba3a5369d8359adf9e05e6fde87b056910160405180910390a1505050565b601c805461117e90613cdb565b80601f01602080910402602001604051908101604052809291908181526020018280546111aa90613cdb565b80156111f75780601f106111cc576101008083540402835291602001916111f7565b820191906000526020600020905b8154815290600101906020018083116111da57829003601f168201915b505050505081565b6112093382612800565b61127b5760405162461bcd60e51b815260206004820152603160248201527f4552433732313a207472616e736665722063616c6c6572206973206e6f74206f60448201527f776e6572206e6f7220617070726f7665640000000000000000000000000000006064820152608401610c1b565b610eb8838383612907565b6000546001600160a01b031633146112e05760405162461bcd60e51b815260206004820181905260248201527f4f776e61626c653a2063616c6c6572206973206e6f7420746865206f776e65726044820152606401610c1b565b6019546040516001600160a01b03909116904780156108fc02916000818181858888f19350505050158015611319573d6000803e3d6000fd5b50565b6000546001600160a01b031633146113765760405162461bcd60e51b815260206004820181905260248201527f4f776e61626c653a2063616c6c6572206973206e6f7420746865206f776e65726044820152606401610c1b565b6015805460ff19811660ff90911615179055565b610eb883838360405180602001604052806000815250611eee565b6000546001600160a01b031633146113ff5760405162461bcd60e51b815260206004820181905260248201527f4f776e61626c653a2063616c6c6572206973206e6f7420746865206f776e65726044820152606401610c1b565b61131981612ae1565b6001600160a01b0381166000908152600a60205260409020546114935760405162461bcd60e51b815260206004820152602660248201527f5061796d656e7453706c69747465723a206163636f756e7420686173206e6f2060448201527f73686172657300000000000000000000000000000000000000000000000000006064820152608401610c1b565b6001600160a01b0382166000908152600d60205260408120546040517f70a082310000000000000000000000000000000000000000000000000000000081523060048201526001600160a01b038516906370a0823190602401602060405180830381865afa158015611509573d6000803e3d6000fd5b505050506040513d601f19601f8201168201806040525081019061152d9190613d5b565b6115379190613d43565b90506000611570838361105f87876001600160a01b039182166000908152600e6020908152604080832093909416825291909152205490565b9050806115e55760405162461bcd60e51b815260206004820152602b60248201527f5061796d656e7453706c69747465723a206163636f756e74206973206e6f742060448201527f647565207061796d656e740000000000000000000000000000000000000000006064820152608401610c1b565b6001600160a01b038085166000908152600e602090815260408083209387168352929052908120805483929061161c908490613d43565b90915550506001600160a01b0384166000908152600d602052604081208054839290611649908490613d43565b9091555061165a9050848483612aea565b604080516001600160a01b038581168252602082018490528616917f3be5b7a71e84ed12875d241991c70855ac5817d847039e17a9d895c1ceb0f18a910160405180910390a250505050565b6000546001600160a01b031633146117005760405162461bcd60e51b815260206004820181905260248201527f4f776e61626c653a2063616c6c6572206973206e6f7420746865206f776e65726044820152606401610c1b565b805161171390601890602084019061362c565b5050565b6000546001600160a01b031633146117715760405162461bcd60e51b815260206004820181905260248201527f4f776e61626c653a2063616c6c6572206973206e6f7420746865206f776e65726044820152606401610c1b565b805161171390601690602084019061362c565b6000818152600360205260408120546001600160a01b031680610bbf5760405162461bcd60e51b815260206004820152602960248201527f4552433732313a206f776e657220717565727920666f72206e6f6e657869737460448201527f656e7420746f6b656e00000000000000000000000000000000000000000000006064820152608401610c1b565b6000546001600160a01b031633146118695760405162461bcd60e51b815260206004820181905260248201527f4f776e61626c653a2063616c6c6572206973206e6f7420746865206f776e65726044820152606401610c1b565b601255565b60006001600160a01b0382166118ec5760405162461bcd60e51b815260206004820152602a60248201527f4552433732313a2062616c616e636520717565727920666f7220746865207a6560448201527f726f2061646472657373000000000000000000000000000000000000000000006064820152608401610c1b565b506001600160a01b031660009081526004602052604090205490565b6000546001600160a01b031633146119625760405162461bcd60e51b815260206004820181905260248201527f4f776e61626c653a2063616c6c6572206973206e6f7420746865206f776e65726044820152606401610c1b565b61196c6000612b6a565b565b6000546001600160a01b031633146119c85760405162461bcd60e51b815260206004820181905260248201527f4f776e61626c653a2063616c6c6572206973206e6f7420746865206f776e65726044820152606401610c1b565b60006119d3600f5490565b9050610d056119e28383613d43565b1115611a305760405162461bcd60e51b815260206004820152601b60248201527f4e6f7420656e6f75676820746f6b656e732072656d61696e696e6700000000006044820152606401610c1b565b60005b82811015611a6e57611a49600f80546001019055565b611a5c84611a578385613d43565b612bc7565b80611a6681613d74565b915050611a33565b50505050565b6000546001600160a01b03163314611ace5760405162461bcd60e51b815260206004820181905260248201527f4f776e61626c653a2063616c6c6572206973206e6f7420746865206f776e65726044820152606401610c1b565b6019805473ffffffffffffffffffffffffffffffffffffffff19166001600160a01b0392909216919091179055565b6000600c8281548110611b1257611b12613d8f565b6000918252602090912001546001600160a01b031692915050565b6040805160ff841660208083019190915233828401528251808303840181526060909201909252805191012082908290611b678183612be1565b611bb35760405162461bcd60e51b815260206004820152601460248201527f496e76616c6964204d6f6e7374657220506173730000000000000000000000006044820152606401610c1b565b348660ff16601354611bc59190613da5565b1115611c135760405162461bcd60e51b815260206004820152601560248201527f4e6f7420656e6f7567682065746865722073656e7400000000000000000000006044820152606401610c1b565b6000611c1e600f5490565b601454909150611c3160ff891683613d43565b1115611c7f5760405162461bcd60e51b815260206004820152601f60248201527f4e6f7420656e6f7567682066726565206d696e74732072656d61696e696e67006044820152606401610c1b565b610d05611c8f8260ff8a16613d43565b1115611cdd5760405162461bcd60e51b815260206004820152601b60248201527f4e6f7420656e6f75676820746f6b656e732072656d61696e696e6700000000006044820152606401610c1b565b8560ff168760ff161115611d595760405162461bcd60e51b815260206004820152602d60248201527f4d696e74207175616e746974792063616e27742062652067726561746572207460448201527f68616e20636c61696d61626c65000000000000000000000000000000000000006064820152608401610c1b565b60008760ff1611611dd25760405162461bcd60e51b815260206004820152602760248201527f4d696e74207175616e74697479206d757374206265206772656174657220746860448201527f616e207a65726f000000000000000000000000000000000000000000000000006064820152608401610c1b565b6011548760ff161115611e275760405162461bcd60e51b815260206004820152601760248201527f4d696e74207175616e7469747920746f6f206c617267650000000000000000006044820152606401610c1b565b60005b8760ff16811015611e6357611e43600f80546001019055565b611e5133611a578385613d43565b80611e5b81613d74565b915050611e2a565b5050505050505050565b606060028054610c6290613cdb565b611713338383612cc9565b6018805461117e90613cdb565b6000546001600160a01b031633146117135760405162461bcd60e51b815260206004820181905260248201527f4f776e61626c653a2063616c6c6572206973206e6f7420746865206f776e65726044820152606401610c1b565b611ef83383612800565b611f6a5760405162461bcd60e51b815260206004820152603160248201527f4552433732313a207472616e736665722063616c6c6572206973206e6f74206f60448201527f776e6572206e6f7220617070726f7665640000000000000000000000000000006064820152608401610c1b565b611a6e84848484612d98565b6017805461117e90613cdb565b6000818152600360205260409020546060906001600160a01b03166120105760405162461bcd60e51b815260206004820152602f60248201527f4552433732314d657461646174613a2055524920717565727920666f72206e6f60448201527f6e6578697374656e7420746f6b656e00000000000000000000000000000000006064820152608401610c1b565b60155462010000900460ff166120b2576018805461202d90613cdb565b80601f016020809104026020016040519081016040528092919081815260200182805461205990613cdb565b80156120a65780601f1061207b576101008083540402835291602001916120a6565b820191906000526020600020905b81548152906001019060200180831161208957829003601f168201915b50505050509050919050565b60006120bc612e21565b905060008151116120dc576040518060200160405280600081525061210a565b806120e684612e30565b60176040516020016120fa93929190613dc4565b6040516020818303038152906040525b9392505050565b34816012546121209190613da5565b111561216e5760405162461bcd60e51b815260206004820152601560248201527f4e6f7420656e6f7567682065746865722073656e7400000000000000000000006044820152606401610c1b565b6000612179600f5490565b90506010548211156121cd5760405162461bcd60e51b815260206004820152601560248201527f4d696e7420616d6f756e7420746f6f206c6172676500000000000000000000006044820152606401610c1b565b610d056121da8284613d43565b11156122285760405162461bcd60e51b815260206004820152601b60248201527f4e6f7420656e6f75676820746f6b656e732072656d61696e696e6700000000006044820152606401610c1b565b60005b82811015610eb857612241600f80546001019055565b61224f33611a578385613d43565b8061225981613d74565b91505061222b565b6000546001600160a01b031633146122bb5760405162461bcd60e51b815260206004820181905260248201527f4f776e61626c653a2063616c6c6572206973206e6f7420746865206f776e65726044820152606401610c1b565b805161171390601790602084019061362c565b6000546001600160a01b031633146123285760405162461bcd60e51b815260206004820181905260248201527f4f776e61626c653a2063616c6c6572206973206e6f7420746865206f776e65726044820152606401610c1b565b6015805491151562010000027fffffffffffffffffffffffffffffffffffffffffffffffffffffffffff00ffff909216919091179055565b6000546001600160a01b031633146123ba5760405162461bcd60e51b815260206004820181905260248201527f4f776e61626c653a2063616c6c6572206973206e6f7420746865206f776e65726044820152606401610c1b565b610d0581111561240c5760405162461bcd60e51b815260206004820152601a60248201527f46726565206d696e7420616d6f756e7420746f6f206c617267650000000000006044820152606401610c1b565b601455565b6000546001600160a01b0316331461246b5760405162461bcd60e51b815260206004820181905260248201527f4f776e61626c653a2063616c6c6572206973206e6f7420746865206f776e65726044820152606401610c1b565b6015805461ff001981166101009182900460ff1615909102179055565b6000546001600160a01b031633146124e25760405162461bcd60e51b815260206004820181905260248201527f4f776e61626c653a2063616c6c6572206973206e6f7420746865206f776e65726044820152606401610c1b565b6001600160a01b03811661255e5760405162461bcd60e51b815260206004820152602660248201527f4f776e61626c653a206e6577206f776e657220697320746865207a65726f206160448201527f64647265737300000000000000000000000000000000000000000000000000006064820152608401610c1b565b61131981612b6a565b6000546001600160a01b031633146125c15760405162461bcd60e51b815260206004820181905260248201527f4f776e61626c653a2063616c6c6572206973206e6f7420746865206f776e65726044820152606401610c1b565b601394909455601294909455601091909155601155601580547fffffffffffffffffffffffffffffffffffffffffffffffffffffffffffff00001692151561ff0019169290921761010091151591909102179055565b80546001019055565b3b151590565b6000818152600560205260409020805473ffffffffffffffffffffffffffffffffffffffff19166001600160a01b038416908117909155819061266882611784565b6001600160a01b03167f8c5be1e5ebec7d5bd14f71427d1e84f3dd0314c0f7b2291e5b200ac8c7c3b92560405160405180910390a45050565b6008546001600160a01b0384166000908152600a6020526040812054909183916126cb9086613da5565b6126d59190613e9e565b6126df9190613d2c565b949350505050565b804710156127375760405162461bcd60e51b815260206004820152601d60248201527f416464726573733a20696e73756666696369656e742062616c616e63650000006044820152606401610c1b565b6000826001600160a01b03168260405160006040518083038185875af1925050503d8060008114612784576040519150601f19603f3d011682016040523d82523d6000602084013e612789565b606091505b5050905080610eb85760405162461bcd60e51b815260206004820152603a60248201527f416464726573733a20756e61626c6520746f2073656e642076616c75652c207260448201527f6563697069656e74206d617920686176652072657665727465640000000000006064820152608401610c1b565b6000818152600360205260408120546001600160a01b031661288a5760405162461bcd60e51b815260206004820152602c60248201527f4552433732313a206f70657261746f7220717565727920666f72206e6f6e657860448201527f697374656e7420746f6b656e00000000000000000000000000000000000000006064820152608401610c1b565b600061289583611784565b9050806001600160a01b0316846001600160a01b031614806128d05750836001600160a01b03166128c584610ce5565b6001600160a01b0316145b806126df57506001600160a01b0380821660009081526006602090815260408083209388168352929052205460ff16949350505050565b826001600160a01b031661291a82611784565b6001600160a01b0316146129965760405162461bcd60e51b815260206004820152602960248201527f4552433732313a207472616e73666572206f6620746f6b656e2074686174206960448201527f73206e6f74206f776e00000000000000000000000000000000000000000000006064820152608401610c1b565b6001600160a01b038216612a115760405162461bcd60e51b8152602060048201526024808201527f4552433732313a207472616e7366657220746f20746865207a65726f2061646460448201527f72657373000000000000000000000000000000000000000000000000000000006064820152608401610c1b565b612a1c600082612626565b6001600160a01b0383166000908152600460205260408120805460019290612a45908490613d2c565b90915550506001600160a01b0382166000908152600460205260408120805460019290612a73908490613d43565b9091555050600081815260036020526040808220805473ffffffffffffffffffffffffffffffffffffffff19166001600160a01b0386811691821790925591518493918716917fddf252ad1be2c89b69c2b068fc378daa952ba7f163c4a11628f55a4df523b3ef91a4505050565b61131981612f62565b604080516001600160a01b038416602482015260448082018490528251808303909101815260649091019091526020810180517bffffffffffffffffffffffffffffffffffffffffffffffffffffffff167fa9059cbb00000000000000000000000000000000000000000000000000000000179052610eb8908490612fa2565b600080546001600160a01b0383811673ffffffffffffffffffffffffffffffffffffffff19831681178455604051919092169283917f8be0079c531659141344cd1fd0a4f28419497f9722a3daafe3b4186f6b6457e09190a35050565b611713828260405180602001604052806000815250613087565b60008060018484604001518560000151866020015160405160008152602001604052604051612c2c949392919093845260ff9290921660208401526040830152606082015260800190565b6020604051602081039080840390855afa158015612c4e573d6000803e3d6000fd5b5050604051601f1901519150506001600160a01b038116612cb15760405162461bcd60e51b815260206004820152601860248201527f45434453413a20696e76616c6964207369676e617475726500000000000000006044820152606401610c1b565b601a546001600160a01b039081169116149392505050565b816001600160a01b0316836001600160a01b03161415612d2b5760405162461bcd60e51b815260206004820152601960248201527f4552433732313a20617070726f766520746f2063616c6c6572000000000000006044820152606401610c1b565b6001600160a01b03838116600081815260066020908152604080832094871680845294825291829020805460ff191686151590811790915591519182527f17307eab39ab6107e8899845ad3d59bd9653f200f220920489ca2b5937696c31910160405180910390a3505050565b612da3848484612907565b612daf84848484613110565b611a6e5760405162461bcd60e51b815260206004820152603260248201527f4552433732313a207472616e7366657220746f206e6f6e20455243373231526560448201527f63656976657220696d706c656d656e74657200000000000000000000000000006064820152608401610c1b565b606060168054610c6290613cdb565b606081612e7057505060408051808201909152600181527f3000000000000000000000000000000000000000000000000000000000000000602082015290565b8160005b8115612e9a5780612e8481613d74565b9150612e939050600a83613e9e565b9150612e74565b60008167ffffffffffffffff811115612eb557612eb56138a2565b6040519080825280601f01601f191660200182016040528015612edf576020820181803683370190505b5090505b84156126df57612ef4600183613d2c565b9150612f01600a86613eb2565b612f0c906030613d43565b60f81b818381518110612f2157612f21613d8f565b60200101907effffffffffffffffffffffffffffffffffffffffffffffffffffffffffffff1916908160001a905350612f5b600a86613e9e565b9450612ee3565b612f6b816132ae565b60008181526007602052604090208054612f8490613cdb565b159050611319576000818152600760205260408120611319916136b0565b6000612ff7826040518060400160405280602081526020017f5361666545524332303a206c6f772d6c6576656c2063616c6c206661696c6564815250856001600160a01b03166133569092919063ffffffff16565b805190915015610eb857808060200190518101906130159190613ec6565b610eb85760405162461bcd60e51b815260206004820152602a60248201527f5361666545524332303a204552433230206f7065726174696f6e20646964206e60448201527f6f742073756363656564000000000000000000000000000000000000000000006064820152608401610c1b565b6130918383613365565b61309e6000848484613110565b610eb85760405162461bcd60e51b815260206004820152603260248201527f4552433732313a207472616e7366657220746f206e6f6e20455243373231526560448201527f63656976657220696d706c656d656e74657200000000000000000000000000006064820152608401610c1b565b60006001600160a01b0384163b156132a3576040517f150b7a020000000000000000000000000000000000000000000000000000000081526001600160a01b0385169063150b7a029061316d903390899088908890600401613ee3565b6020604051808303816000875af19250505080156131a8575060408051601f3d908101601f191682019092526131a591810190613f1f565b60015b613258573d8080156131d6576040519150601f19603f3d011682016040523d82523d6000602084013e6131db565b606091505b5080516132505760405162461bcd60e51b815260206004820152603260248201527f4552433732313a207472616e7366657220746f206e6f6e20455243373231526560448201527f63656976657220696d706c656d656e74657200000000000000000000000000006064820152608401610c1b565b805181602001fd5b7fffffffff00000000000000000000000000000000000000000000000000000000167f150b7a02000000000000000000000000000000000000000000000000000000001490506126df565b506001949350505050565b60006132b982611784565b90506132c6600083612626565b6001600160a01b03811660009081526004602052604081208054600192906132ef908490613d2c565b9091555050600082815260036020526040808220805473ffffffffffffffffffffffffffffffffffffffff19169055518391906001600160a01b038416907fddf252ad1be2c89b69c2b068fc378daa952ba7f163c4a11628f55a4df523b3ef908390a45050565b60606126df84846000856134b4565b6001600160a01b0382166133bb5760405162461bcd60e51b815260206004820181905260248201527f4552433732313a206d696e7420746f20746865207a65726f20616464726573736044820152606401610c1b565b6000818152600360205260409020546001600160a01b0316156134205760405162461bcd60e51b815260206004820152601c60248201527f4552433732313a20746f6b656e20616c7265616479206d696e746564000000006044820152606401610c1b565b6001600160a01b0382166000908152600460205260408120805460019290613449908490613d43565b9091555050600081815260036020526040808220805473ffffffffffffffffffffffffffffffffffffffff19166001600160a01b03861690811790915590518392907fddf252ad1be2c89b69c2b068fc378daa952ba7f163c4a11628f55a4df523b3ef908290a45050565b60608247101561352c5760405162461bcd60e51b815260206004820152602660248201527f416464726573733a20696e73756666696369656e742062616c616e636520666f60448201527f722063616c6c00000000000000000000000000000000000000000000000000006064820152608401610c1b565b843b61357a5760405162461bcd60e51b815260206004820152601d60248201527f416464726573733a2063616c6c20746f206e6f6e2d636f6e74726163740000006044820152606401610c1b565b600080866001600160a01b031685876040516135969190613f3c565b60006040518083038185875af1925050503d80600081146135d3576040519150601f19603f3d011682016040523d82523d6000602084013e6135d8565b606091505b50915091506135e88282866135f3565b979650505050505050565b6060831561360257508161210a565b8251156136125782518084602001fd5b8160405162461bcd60e51b8152600401610c1b91906137d0565b82805461363890613cdb565b90600052602060002090601f01602090048101928261365a57600085556136a0565b82601f1061367357805160ff19168380011785556136a0565b828001600101855582156136a0579182015b828111156136a0578251825591602001919060010190613685565b506136ac9291506136e6565b5090565b5080546136bc90613cdb565b6000825580601f106136cc575050565b601f01602090049060005260206000209081019061131991905b5b808211156136ac57600081556001016136e7565b7fffffffff000000000000000000000000000000000000000000000000000000008116811461131957600080fd5b60006020828403121561373b57600080fd5b813561210a816136fb565b6001600160a01b038116811461131957600080fd5b60006020828403121561376d57600080fd5b813561210a81613746565b60005b8381101561379357818101518382015260200161377b565b83811115611a6e5750506000910152565b600081518084526137bc816020860160208601613778565b601f01601f19169290920160200192915050565b60208152600061210a60208301846137a4565b6000602082840312156137f557600080fd5b5035919050565b6000806040838503121561380f57600080fd5b823561381a81613746565b946020939093013593505050565b60008060006060848603121561383d57600080fd5b833561384881613746565b9250602084013561385881613746565b929592945050506040919091013590565b6000806040838503121561387c57600080fd5b823561388781613746565b9150602083013561389781613746565b809150509250929050565b634e487b7160e01b600052604160045260246000fd5b604051601f8201601f1916810167ffffffffffffffff811182821017156138e1576138e16138a2565b604052919050565b600067ffffffffffffffff831115613903576139036138a2565b6139166020601f19601f860116016138b8565b905082815283838301111561392a57600080fd5b828260208301376000602084830101529392505050565b60006020828403121561395357600080fd5b813567ffffffffffffffff81111561396a57600080fd5b8201601f8101841361397b57600080fd5b6126df848235602084016138e9565b803560ff8116811461399b57600080fd5b919050565b600080600083850360a08112156139b657600080fd5b6139bf8561398a565b93506139cd6020860161398a565b925060607fffffffffffffffffffffffffffffffffffffffffffffffffffffffffffffffc0820112156139ff57600080fd5b506040516060810181811067ffffffffffffffff82111715613a2357613a236138a2565b6040908152850135815260608501356020820152613a436080860161398a565b6040820152809150509250925092565b801515811461131957600080fd5b60008060408385031215613a7457600080fd5b8235613a7f81613746565b9150602083013561389781613a53565b600067ffffffffffffffff821115613aa957613aa96138a2565b5060051b60200190565b600082601f830112613ac457600080fd5b81356020613ad9613ad483613a8f565b6138b8565b82815260059290921b84018101918181019086841115613af857600080fd5b8286015b84811015613b135780358352918301918301613afc565b509695505050505050565b60008060408385031215613b3157600080fd5b823567ffffffffffffffff80821115613b4957600080fd5b818501915085601f830112613b5d57600080fd5b81356020613b6d613ad483613a8f565b82815260059290921b84018101918181019089841115613b8c57600080fd5b948201945b83861015613bb3578535613ba481613746565b82529482019490820190613b91565b96505086013592505080821115613bc957600080fd5b50613bd685828601613ab3565b9150509250929050565b60008060008060808587031215613bf657600080fd5b8435613c0181613746565b93506020850135613c1181613746565b925060408501359150606085013567ffffffffffffffff811115613c3457600080fd5b8501601f81018713613c4557600080fd5b613c54878235602084016138e9565b91505092959194509250565b600060208284031215613c7257600080fd5b813561210a81613a53565b60008060008060008060c08789031215613c9657600080fd5b863595506020870135945060408701359350606087013592506080870135613cbd81613a53565b915060a0870135613ccd81613a53565b809150509295509295509295565b600181811c90821680613cef57607f821691505b60208210811415613d1057634e487b7160e01b600052602260045260246000fd5b50919050565b634e487b7160e01b600052601160045260246000fd5b600082821015613d3e57613d3e613d16565b500390565b60008219821115613d5657613d56613d16565b500190565b600060208284031215613d6d57600080fd5b5051919050565b6000600019821415613d8857613d88613d16565b5060010190565b634e487b7160e01b600052603260045260246000fd5b6000816000190483118215151615613dbf57613dbf613d16565b500290565b600084516020613dd78285838a01613778565b855191840191613dea8184848a01613778565b8554920191600090600181811c9080831680613e0757607f831692505b858310811415613e2557634e487b7160e01b85526022600452602485fd5b808015613e395760018114613e4a57613e77565b60ff19851688528388019550613e77565b60008b81526020902060005b85811015613e6f5781548a820152908401908801613e56565b505083880195505b50939b9a5050505050505050505050565b634e487b7160e01b600052601260045260246000fd5b600082613ead57613ead613e88565b500490565b600082613ec157613ec1613e88565b500690565b600060208284031215613ed857600080fd5b815161210a81613a53565b60006001600160a01b03808716835280861660208401525083604083015260806060830152613f1560808301846137a4565b9695505050505050565b600060208284031215613f3157600080fd5b815161210a816136fb565b60008251613f4e818460208701613778565b919091019291505056fea2646970667358221220ee76508cfde1544b7f2a8bb39c9a05a674594530e95f99719667db9ee77a20b864736f6c634300080b00334552433732313a207472616e7366657220746f206e6f6e204552433732315265",
  "linkReferences": {},
  "deployedLinkReferences": {}
}